:10400000007F0020D175000079740000CD7500009C
:10401000CD750000CD750000CD750000CD75000098
:10402000000000000000000000000000CD7500004E
:10403000CD75000000000000CD750000CD750000BA
:104040000000000000000000000000000000000070
:104050000000000000000000000000000000000060
:104060000000000000000000000000000000000050
:104070000000000000000000000000000000000040
:104080000000000000000000000000000000000030
:104090000000000000000000000000000000000020
:1040A0000000000000000000000000000000000010
:1040B0000000000000000000000000000000000000
:1040C00010B5054C237833B9044B13B10448AFF352
:1040D00000800123237010BDF000002000000000CC
:1040E000A8D6000008B5034B1BB103490348AFF342
:1040F000008008BD00000000F4000020A8D60000E9
:104100000121132005F0D4B908B50121132005F0D1
:10411000E7F94FF47A7005F05DFA1320002105F0FD
:10412000DFF94FF47A70BDE8084005F053BA08B5DE
:1041300005F038FA002008BD1B207047034AB2F88A
:10414000CC3043F08003A2F8CC3070470000094027
:1041500037B50121132005F0ABF90021132005F03C
:10416000BFF968460722032108F0D6F8BDF80030F1
:104170001C4CC3F384130125684607220521E5542E
:1041800008F0CAF8BDF80030C3F38413684607226C
:104190000621E55408F0C0F8BDF80030C3F38413DD
:1041A000684607220921E55408F0B6F8BDF800304A
:1041B000C3F38413684607220A21E55408F0ACF8DB
:1041C000BDF80030C3F3841307220B216846E55481
:1041D00008F0A2F8BDF80030C3F38413E55403B02F
:1041E00030BD00BFEA0100200B7930B4DB01114C77
:1041F000114DDBB2A3714B788A781B01120302F4D4
:104200004052DBB213430A788446A85CCA78120293
:1042100002F4407200F003001343034363804B79C0
:10422000064ADB01DBB22372002030BCCCF8002050
:10423000704700BF0042044084D40000544457003B
:10424000024B0020FF2218701A7070470042044091
:1042500030B5836A85B004468C4601ADABB193E8B6
:10426000070085E807006268117883F804C0E26AF5
:104270009A6019601846626A9047A36A1BB195E874
:10428000070083E8070005B030BD2B46EBE700BF11
:1042900010B4EFF30383103B5BB22149214C03F1CF
:1042A000C00051F8202022F4803241F8202054F838
:1042B0002330D3E906218A421CD018699C6840B398
:1042C00093F820C0BCF10F0F0AD9616840F82210A2
:1042D000D96901328A429A610CD05DF8044B70476B
:1042E000BCF1070F17D821798154D96901328A426C
:1042F0009A61F2D15B680C4993F903305DF8044B85
:104300005809012203F01F0302FA03F341F8203099
:1043100070476068DDE7A48820F81240D9E700BF45
:10432000006000405801002000E100E030B5EFF3EC
:104330000383103B5BB203F1C0002C492C4C51F8B5
:10434000202022F4803241F8202054F8233058688D
:10435000026A82B392F801C0DC695A69BCF1010FAC
:1043600016D0A2420BD0D3E9020129B193F8204024
:104370000F2C05D951F82210416001325A6130BD2D
:10438000072C95BF895C31F8121001718180F4E728
:1043900004F1FF3E964511D001690029E1D090F962
:1043A000031014484FEA511E01F01F010CFA01F1ED
:1043B00040F82E10D5E75A69DC69D2E790F903403E
:1043C00004F1C00E6009800051F82E5000F16040E9
:1043D00000F5614004F01F040CFA04F425F4803564
:1043E00041F82E50C0F880410460BCE700600040F6
:1043F0005801002000E100E0EFF30383103B5AB2C4
:10440000324802F1C00C03F0FF0350F82C1021F4E5
:10441000803140F82C102E4951F822008168C9786B
:10442000890704D54168497A012900D070475209AB
:1044300010B40121274C203203F01F0301FA03F3CB
:1044400044F82230BFF34F8FBFF36F8F436893F967
:104450000230002B2FDB5A09203203F01F0301FA30
:1044600003F344F82230BFF34F8FBFF36F8FD0E9CF
:104470000124237892F9022023F04003002A2370BC
:1044800014DB02F1C00C114C53099B0002F01F0217
:10449000914003F1604354F82C2003F5614322F46A
:1044A000803244F82C20C3F8801119605DF8044B69
:1044B0000121FFF7CDBE82685DF8044B137823F02D
:1044C000400313700121FFF7C3BE00BF006000402E
:1044D0005801002000E100E070B5EFF30384103CC8
:1044E000314B64B253F82460736893F90230002BA7
:1044F00041DB5A092D492032012003F01F0300FA45
:1045000003F341F82230BFF34F8FBFF36F8FD6E92B
:10451000012392F902101A78002922F040021A7041
:1045200014DB01F1C00C224D4A09920001F01F0179
:10453000884002F1604255F82C1002F5614221F4E6
:10454000803145F82C10C2F880011060DA78002123
:10455000D5B21207D97021D4EB0712D405F0140597
:10456000142D16D0124AC03452F8243023F480336C
:1045700042F8243070BDB3681A7822F040021A70F5
:10458000E4E70421304605F01405FFF761FE142D21
:10459000E8D108213046FFF75BFEE3E7052130460E
:1045A000FFF756FED8E700BF5801002000E100E009
:1045B00000600040036A70B50446987800F07B0004
:1045C000987020780D4658BBE16994F802C00E69D6
:1045D0000CF00301521A2944C4E903124EB37AB114
:1045E000A378306803F00303013B22FA03F3B268B7
:1045F000966800229BB22261B04780B9236A207876
:104600009A7842F080029A7040B994F802C00CF097
:10461000030CBCF1020F15D02A78DA70002070BDAF
:10462000C4E90312E1690E6996B12946002AE7D070
:10463000D6E79A780CF0030C42F08002BCF1020F2E
:104640009A70E9D12A8842F47E42DA810020E6E7B6
:104650009A7842F080029A700020E0E7036A91F8AD
:1046600001C000B50246987800F07B0E00F00B0008
:1046700098700020D0608A785A701A786CF3010222
:104680001A70CA789A7493F807C00A780CF0A301DC
:1046900002F05C020A43DA7183F802E05DF804FB81
:1046A00010B5D0E90721002343608B7092F90520F3
:1046B0002F49044650090123203002F01F0203FA5B
:1046C00002F241F82020BFF34F8FBFF36F8FE269F2
:1046D00092F90B205009203002F01F0203FA02F277
:1046E00041F82020BFF34F8FBFF36F8FE26992F93B
:1046F00007205009203002F01F0203FA02F241F8AD
:104700002020BFF34F8FBFF36F8FE26992F909202A
:10471000500902F01F02934000F1200241F82230BC
:10472000BFF34F8FBFF36F8FE369DA6822B19368ED
:1047300010681B6A9847E3691B691BB19A6818687F
:10474000136A9847EFF31081012383F31088E3691C
:10475000084A1C78D2F800014FF00043E3400343BD
:10476000C2F80031D2F8003181F31088002010BD6A
:1047700000E100E0006F0440F0B5846A85B00546B2
:104780000F4694466E46B4B194E80F0086E80F00D9
:10479000EB691B7884F804C02360EB6A2046C4E907
:1047A00002736B6A9847AC6A1CB196E80F0084E804
:1047B0000F0005B0F0BD3446EAE700BF2DE9F04731
:1047C0000B780322DA4002F001020D46120102705A
:1047D00003F10073AA694969416203F56053002639
:1047E0005B01C0E90753C0E90A626A788378B24284
:1047F00014BF0122022262F301038370044695F97B
:104800000B00D04B95F80AC04209203200F01F0778
:10481000012101FA07F743F82270BFF34F8FBFF36E
:104820006F8FC94AC94F00F1C00E4FEA0C1C52F8F5
:104830002E8066F3104842F82E8003EB000E5FFADC
:104840008CFC8EF800C347F8204095F9050095F8D8
:1048500004C04FEA501E0EF1200E00F01F0801FAAE
:1048600008F843F82E80BFF34F8FBFF36F8F00F12E
:10487000C00E03EB000952F82E804FEA0C1C66F3C1
:1048800010485FFA8CFC42F82E8089F800C347F884
:10489000204095F9070095F806C04FEA501E0EF12A
:1048A000200E00F01F0801FA08F843F82E80BFF32D
:1048B0004F8FBFF36F8F00F1C00E03EB000952F86A
:1048C0002E804FEA0C1C66F310485FFA8CFC42F80D
:1048D0002E8089F800C347F8204095F9090095F823
:1048E00008C04FEA501E0EF1200E00F01F0801FA1A
:1048F00008F143F82E10BFF34F8FBFF36F8F4FEACD
:104900000C1100F1C00C034452F82CE066F3104E79
:1049100042F82CE0C9B283F80013EB6847F8204056
:1049200003B35968E7690A684FF40020106094F8EF
:1049300000C0206A461DBCF1000F00F05881113004
:104940005060787830B9D0780B365660012666F31F
:104950000510D0709A6818681368984706460028B2
:1049600040F042812B6903B35968E7690A684FF048
:104970000060106094F800C0206AC61CBCF1000FF3
:1049800000F045810F309060787830B9D0780B36E0
:104990009660012666F30510D0709A68186813684F
:1049A00098470646002840F03981EFF31080012334
:1049B00083F31088664B2E78D3F800214FF0004126
:1049C000F14022EA0102C3F80021D3F8003180F35C
:1049D0001088236AE06900229A701A715A729A72DA
:1049E000DA725A83297840F20722CA40D20744BFBC
:1049F0004022DA7406221A7722787AB1C168013A25
:104A0000002900F015810126120391B2314341F0D3
:104A100006029A829A8A92B29142FBD1EA78A978E8
:104A2000D20042EA01126978032900F0E2800029ED
:104A30000CBFE221F221ED69D2B21A7099712A7B82
:104A4000520002F002025A736A78A97800261E7298
:104A500095F800C0D201490101F02001D2B20A4309
:104A6000ACF10201012940F2C880D2B2DA716A6861
:104A7000917859701978567866F301011970D178D8
:104A800099741278D97902F05C0201F0A3010A430B
:104A9000DA710027C4E90377C4E9057790F90510B6
:104AA000294E01F1C00E4A0956F82E80920067F394
:104AB000104802F1604246F82E8002F561424FF044
:104AC000010E01F01F010EFA01F1C2F88011116010
:104AD00090F90B1001F1C0094A0956F829A092007B
:104AE00002F1604202F5614267F3104A01F01F01D2
:104AF00046F829A00EFA01F1C2F88011116090F970
:104B0000071001F1C0094A0956F829A0920002F1E4
:104B1000604202F5614201F01F0167F3104A46F856
:104B200029A00EFA01F1C2F88011116090F9091064
:104B300001F1C0004A0956F82090920002F160424B
:104B400008E000BF00E100E00060004058010020E4
:104B5000006F044067F3104946F8209002F5614267
:104B60000CF0030C01F01F010EFA01F14CF0700C77
:104B7000C2F88011116083F802C06B8923814FF65F
:104B8000FF7843452DD0EFF310818EF310882D4A26
:104B900013681BB92C48C3704023C37013680133DA
:104BA000136081F31088218928480B0A1B0153FAEE
:104BB00081F150F8213023F0011323F4404343F0F6
:104BC000040340F82130EFF31081012383F31088B0
:104BD000136813B11368013B13601368CBB181F301
:104BE00010881B4B636000263046BDE8F0873046D6
:104BF000A6E642F04002F2211DE7BCF1020F08BF19
:104C000042F01002FF21D2B25970DA7141E730460A
:104C1000B9E60D4A8020D370D070E0E7EB68002B36
:104C2000E2D09A681868136A98473046BDE8F08762
:104C3000C1690E7A1640360206F4706646F0010627
:104C4000E2E600BF54010020000D044000080440CB
:104C5000554943532DE9F04F9B46FF238BF8023013
:104C60009BF8003023F004038BF8003080238BF88E
:104C700003306C4B91466C4A1B6A12688FB00590EA
:104C8000C3F302608240C3F30233DA40674B0492FD
:104C9000994568DC01330026100A0193A2FB032327
:104CA00002900B960993089235460A91CDF83490FC
:104CB000EBB2002400930C9502E001340D2C4AD095
:104CC0005B4B009A13F80480C8F34009C8F3800ACC
:104CD00049EA0A039342F0D1564B33F81470059B0E
:104CE00003FB07F7049BB3FBF7F56B1EFF2B039346
:104CF000E3D807FB05F52A46DDE90801EB1707F0C5
:104D0000C5FF0A9A039E002A3AD1A0F5C330A03805
:104D10000028019BB8BF40428342CEDD039B8BF845
:104D200002309BF800300190C8F3000262F3861352
:104D300069F304136AF3C3038BF800309BF8013066
:104D4000C8F3C10868F3010301348BF801300D2C5E
:104D50000A9B0B93B4D10C9D4DB9019B0D9A9342C4
:104D60004FF00105A4DC00200FB0BDE8F08FDDF8A6
:104D70003490019B4B45F6DD03200FB0BDE8F08F6A
:104D8000CDE9069A0394DDE90889DDF804A00B9CBF
:104D900005E0EB1740464946013E07F077FF029BCE
:104DA000B5FBF3F27F2A02FB00F035D90028B8BF2B
:104DB000FF300312A3F5C333A03B002BB8BF5B4207
:104DC0009A451DDD1A4903988BF80260095C9A46E2
:104DD0009BF8003014460A46C1F3000161F38613C4
:104DE000069961F30413079961F3C3038BF800304C
:104DF0009BF80130C2F3C10262F301038BF801306A
:104E00009BF800308BF80340ED1B43F004032A4667
:104E10008BF80030002EBCD10B94CDF804A0039C7D
:104E20004BE700BF00E00140E40100209F86010045
:104E3000A8D400008CD40000F0B5EFF30383103B3E
:104E40005BB203F1C0003849384C51F8202022F4FD
:104E5000803241F8202054F82300C3691A6903699D
:104E600092B103B1F0BD046AA378426A03F07F03F4
:104E700043F004030021A370C160002AF2D0BDE812
:104E8000F0408022FFF778BC046A002BECD0057854
:104E90002DB3E18AC1F304218D423FD990F802E09D
:104EA000234F0EF00306CEF3010E0CE092F800C083
:104EB00084F80FC00131A3EB0E0372448D42C0E9A8
:104EC00003231FD9F3B1022EC268EFD1B2F800C09C
:104ED0004CEA070C1FFA8CFCA4F80EC0EAE790F825
:104EE00002E0C2680EF00301022912D01178E170CD
:104EF0000EF0030EA3EB0E037244C0E90323002B54
:104F0000B0D1B0E7227922F080022271002BA9D122
:104F1000A9E7118841F47E41E181E9E7237962F351
:104F2000C7132371F0BD00BF00600040580100208E
:104F300000FEFFFF10B582B0EFF30383103B5BB2BE
:104F400003F1C00059495A4C51F8202022F4803214
:104F500041F8202054F82340E369DB6813B1A369CA
:104F6000002B48D122894FF6FF739A4274D12078E2
:104F7000236AA8B9A27802F00302022A13D0597951
:104F8000A369C9B20191ABB9636A23B12046042277
:104F9000FFF7F2FB207838B3236ADA8AD2067DD095
:104FA000DA8AD1067AD0198AA369C1F3080101917E
:104FB000002BE9D0A278606902F0030201A908F091
:104FC0003BF8D4E90521A37803F003031A44C91A76
:104FD000C4E9052129B9636A1BB101222046FFF704
:104FE000CBFB20780028D7D123894FF6FF7293425C
:104FF0000ED102B010BD636A0021C4E90511002B77
:10500000F7D00122204602B0BDE81040FFF7B4BB44
:105010001A0A1201274952FA83F351F8232022F089
:10502000011222F4404242F0040241F82320EFF33F
:105030001082012383F310881F4B196811B119687E
:10504000013919601B681BB91C498020CB70C870DE
:1050500082F3108802B010BDEFF31081012383F3B7
:105060001088154B1A681AB91448C2704022C270D1
:105070001A6801321A6081F3108822890D49130AD7
:105080001B0153FA82F251F8223023F0011323F46A
:10509000404343F0050341F8223068E7BE221A710D
:1050A00023894FF6FF729342A3D0B1E7006000401E
:1050B000580100200008044054010020000D044065
:1050C00010B5EFF30384103C0B4B64B253F824008B
:1050D000D0E90821937803F07B03937019B1022281
:1050E0000021FFF749FB054AC03452F8243023F46D
:1050F000803342F8243010BD580100200060004089
:1051000010B5EFF30384103C194B64B253F824003C
:10511000037843B9837803F00303022B03D0036AB7
:105120005979C9B203E0036A198AC1F3080193F8F7
:1051300004C01CF0100F0CF0380206D093F81CC00D
:105140001CF0010F08BF42F0400293F804C00CF0BD
:10515000C70C83F804C0436A0BB1FFF70DFB054A87
:10516000C03452F8243023F4803342F8243010BD88
:10517000580100200060004030B5436A85B0044605
:105180008C4601ADABB193E8070085E80700626883
:10519000117883F804C0A26A9A6019601846226ADE
:1051A0009047636A1BB195E8070083E8070005B0E4
:1051B00030BD2B46EBE700BF10B4EFF30383103B89
:1051C0005BB21549154C03F1C00051F8202022F4C0
:1051D000803241F8202054F823305A69D9698A4234
:1051E00006D2D3E90240A8B1805CE07001325A6176
:1051F0008A4202D05DF8044B70471A69002AF9D13F
:105200009A685DF8044B937803F07B0343F0040342
:1052100093707047E070E9E700600040580100209B
:1052200010B4EFF30383103B5BB21849184C03F141
:10523000C00051F8202022F4803241F8202054F898
:1052400023305969DA69914206D2D3E90240D0B1DC
:10525000405CE070013159619969914207D29868C8
:105260001A6940794C1C9C615054D3E90612914252
:1052700006D19A68937803F03B0343F004039370DC
:105280005DF8044B7047E070E4E700BF0060004049
:105290005801002010B5EFF30384103C0A4B64B2B0
:1052A000012153F824008268937803F0030393707C
:1052B000FFF762FFC034054A52F8243023F48033EC
:1052C00042F8243010BD00BF5801002000600040AB
:1052D00010B5EFF30384103C0C4B64B24FF0840C18
:1052E00053F8240083689A7802F003029A701A79BE
:1052F00083F804C00421FFF73FFFC034044A52F88A
:10530000243023F4803342F8243010BD58010020AB
:105310000060004003685969A1B190F82D3070B564
:10532000044603F0FF0563B98A68038C9668086831
:10533000A1692A46B047E269C4E90852012384F80A
:10534000333070BD704700BF70B5866B82B00446C5
:105350000B466D463EB396E8030085E80300E26B1A
:105360003371236832605A6912B194F82D10A1B1DB
:105370009B6913B194F82D2052B9636B304698475E
:10538000A36B1BB195E8030083E8030002B070BD76
:105390009A68186813699847EFE7936810681B6963
:1053A00098472368E4E72E46D9E700BFEFF303836D
:1053B000103B5BB20449C03351F8232022F4803201
:1053C00041F82320704700BF0060004070B5EFF344
:1053D0000383103B5BB26249C03351F8232022F4AF
:1053E000803241F82320EFF30383103B5D4A5BB228
:1053F00052F823402269137BC3F30000DB075CD41F
:1054000094F82C3094F82A10994216D094F82D1064
:1054100009B1022B76D02046FFF77CFF236994F870
:105420002820DA7094F82B2094F82C30013A0133BC
:1054300084F82B2084F82C3070BD94F8333003F0BE
:10544000FF05002B5BD1236A002B5ED094F82D1052
:10545000002961D094F8311000296AD0216884F8BD
:1054600031504869002874D08969002971D0E069F9
:1054700002286ED98E68831E0868B668F421917080
:105480009BB2A2692946B0472268E36952699168D4
:1054900010688E68023B9BB22A462946B047E369F2
:1054A00022690220023BC4E90803012184F8331079
:1054B0000023FF209372D07070BD94F82D30B3B1EB
:1054C00094F831309BB9636AA1695279CA54D4E91E
:1054D000082394F82E10013A0133C4E9082321B3BC
:1054E000226952210123D17284F8303070BD00202E
:1054F00001215423206284F82F10D37270BD84F8E8
:10550000330070BD5223D37270BD94F82E30002B3F
:10551000E7D15423D37270BD616AA069013B405C3E
:105520000131C4E90831D070C6E723695422DA7228
:1055300070BD636AA1695279CA54D4E90832013B4B
:105540000132012BC4E90832226904D0FF20D07057
:10555000B2E7012BACD12023FF209372D070ABE7D0
:10556000006000405801002010B582B0EFF30383C3
:10557000103B374A5BB252F823000269D37A23F01A
:105580000803D37290F82F30002B3DD190F82A10E9
:1055900003F0FF0C90F82C3099421AD1036A53B9EA
:1055A00090F82D1090F83040C1F10301C9B2B4B3A6
:1055B000D372FFF7C9FEEFF30383103B5BB22549BB
:1055C000C03351F8232022F4803241F8232002B066
:1055D00010BDFBB190F82D4004F0FF0134B1022B57
:1055E0000ABF90F82910614641F001014FF0000C0C
:1055F00082F80BC0D17090F82B200133013A80F86B
:105600002B2080F82C30D6E7F023D3720121FFF74E
:105610009BFED0E7012909D090F82910E6E7F02396
:10562000D372937803F0CF039370C2E70190FFF732
:1056300071FE019890F82A30012B05D190F82810BE
:10564000026990F82C30D1E7026990F82C30E3E73A
:105650005801002000600040F0B583B0EFF30384F0
:10566000103C154B64B253F82450EF68BFB16A6820
:105670002B6992F90D20121B18BF01226E46C3B18F
:1056800093E8030086E803001A706A695A601846B6
:10569000B8472B691BB196E8030083E80300074A6B
:1056A000C03452F8243023F4803342F8243003B05D
:1056B000F0BD3346E8E700BF58010020006000401D
:1056C000EFF30383103B5BB2064A074952F82320ED
:1056D0000120C033107251F8232022F4803241F8A7
:1056E00023207047580100200060004010B4CBB266
:1056F00001249C40A4B202B924040B0A5B0103F10B
:10570000804303F5802300209C605DF8044B7047C4
:1057100030B4EFF31084012383F310881C4B186816
:1057200018B91C4DE8704020E87018680130186006
:1057300084F31088D4034FEA1120C9B219D40001B0
:10574000154C084444F82020EFF31082012181F326
:105750001088196811B11968013919601B681BB9E3
:105760000C498020CB70C87082F31088002030BCB8
:10577000704701EB001C084C54F82C5025F4803580
:1057800044F82C5022F4803544F82C500001D7E71F
:1057900054010020000D04400008044070B5C36AA5
:1057A00084B004468C46164601AD9BB193E80700D1
:1057B00085E8070083F808C0226B1846C3E9002675
:1057C000A26A9047E36A1BB195E8070083E80700E7
:1057D00004B070BD2B46EDE78268012370B580F8F8
:1057E00020300226B323D37180F821605379044618
:1057F00023F001035371C2690D46FFF7CFFFA36881
:10580000DE705A7942F001025A7194F82120012A7F
:1058100016D094F8212002B170BD052DFCD194F86A
:105820002320002AF8D194F821201AB95A7A02F0DC
:10583000F3025A72BF210122D97184F8232070BD6E
:105840004FF48872EA40D207E3D594F82320002A67
:10585000E2D1E8E730B583B0EFF30383103B5BB2EE
:105860004249C03351F8232022F4803241F82320EA
:10587000EFF30383103B5BB23D4A52F8234094F8A8
:105880002230B3B9A368012284F82220DA7CD2B294
:105890008DF805209DF8052012F0010F5A7A14BFEB
:1058A00002F0F70202F0F3025A72AC22DA7103B08E
:1058B00030BD94F820304BB9A3681B7A13F0080F61
:1058C00020460CBF04210821FFF786FF2269A36848
:1058D0009AB9D97CC9B28DF806109DF806101979CD
:1058E00041F010011971197941F008011971197904
:1058F00062F30411197103B030BDA1698A4209D065
:10590000E268DB7C481CA0615354E3690133E36126
:1059100003B030BD022584F821505979E26921F0A5
:105920000101597120460621FFF738FFA36821695C
:10593000DD705A7942F001025A7191B9DA7CD2B223
:105940008DF807209DF807201A7942F010021A718D
:105950001A7942F008021A711A7961F304121A7165
:10596000A5E7A269E168DB7C501CCCE70060004041
:105970005801002038B5EFF30383103B5BB2234995
:10598000C03351F8232022F4803241F82320EFF372
:105990000383103B5BB21E4A52F8234094F8203038
:1059A00093B194F8213003F0FF0263B9A369206931
:1059B000A16898420DD0E269E0680132C05C887449
:1059C0000133C4E9063238BD05212046FFF704FF44
:1059D000E7E723680D4893F90E3003F1C004002B6C
:1059E00050F8245062F3104540F8245009DB5A095E
:1059F000084C03F01F030120603200FA03F344F85F
:105A00002230CB7943F04003CB7138BD00600040B9
:105A10005801002000E100E038B5EFF30383103BAC
:105A2000204A5BB252F82340A1680B795807C3F3B0
:105A3000800217D5CA7922F04002C023CA7101E062
:105A4000013B02D0CA795206FAD4EFF30383103B2C
:105A50005BB21549C03351F8232022F4803241F85B
:105A6000232038BD022584F821504B7962F30003CE
:105A70002046E2694B710721FFF790FEA168CD70C7
:105A80004B7943F001034B7194F82130002BD1D1B5
:105A9000A369E269E0680132C05C88740133C4E93B
:105AA0000632C7E7580100200060004010B582B000
:105AB000EFF30383103B3D4A5BB252F82300836847
:105AC0005A7A910746D1D1B211F00C0F35D001228C
:105AD00080F8242090F82110C269012963D004695C
:105AE00081698C4256D803214FF0000EA024DC714E
:105AF00080F820E080F822E093F805C06EF3000CF7
:105B000083F805C090F82440002C47D083F809E0C2
:105B100000240223C46180F82130FFF73FFEEFF339
:105B20000383103B5BB22249C03351F8232022F497
:105B3000803241F8232002B010BDCA06EFD5DA7CCE
:105B4000D2B28DF807209DF80720DA7902F0EF0233
:105B5000DA71E4E70022A02180F82420D97180F8CE
:105B6000202080F82220597962F30001597190F8C1
:105B7000241069B9DF219F2219701A7000210223B5
:105B8000C26980F82130C1610121FFF707FEC6E735
:105B90005A72F3E7013AC2610321A5E7DF241C70C2
:105BA0009F241C70B4E702219EE700BF580100202B
:105BB0000060004030B5836B83B004460A466D46F2
:105BC000A3B193E8030085E80300E16B1A71626BEF
:105BD000196018469047A36B1BB195E8030083E852
:105BE0000300002384F82B3003B030BD2B46ECE7D4
:105BF0002DE9F04F0468DFF86091656A6668DFF8A8
:105C00005C819DF924C04FEA011E01691F240C70BC
:105C10005F240C70DF240C702C7944F0E0040C74C9
:105C2000EC7844F0E0044C74AC78240104F0700487
:105C300044F008048C702C786F789DF92850012C62
:105C400014BF0424052444EA4704E4B2CC70404C59
:105C5000A64214BF7726F72609EB05044E710027EC
:105C60005FFA8EFEB3268F71CE7184F800E305F1E2
:105C7000C00648F82500374C4FEA551A54F826B0AC
:105C80004FEA8A0A67F3104B0AF1604A44F826B0DB
:105C90000AF5614A012605F01F0506FA05F5CAF85E
:105CA0008051CAF8005009EB030503F1C00A85F8DA
:105CB00000E348F823005D09AD0054F82AB005F16F
:105CC000604505F5614503F01F0306FA03F367F32A
:105CD000104B44F82AB0C5F880312B6009EB0C0357
:105CE0000CF1C00A83F800E34FEA5C1548F82C0079
:105CF000AD000CF01F0305F1604554F82AC0914433
:105D000005F5614506FA03F367F3104C44F82AC021
:105D1000C5F880312B6089F800E348F8220002F1D1
:105D2000C000530902F01F02964054F820209B0047
:105D300067F3104203F1604344F8202003F5614308
:105D40009F22C3F880611E600A70BDE8F08F00BF1B
:105D500040420F000060004000E100E058010020D8
:105D600010B483B0EFF30383103B5BB24849C033F8
:105D700051F8232022F4803241F82320EFF30383EB
:105D8000103B444A5BB252F8233093F82D20BAB945
:105D900099691A69022903D8117941F040011171FA
:105DA000D969012917D0D27CD2B28DF80720012100
:105DB0009DF8072083F82D1003B05DF8044B704761
:105DC000DA69002AF8D0032A0ED0022A4ED0012A1E
:105DD00021D019690DE0117941F01001117111798B
:105DE00041F008011171DEE719690A7942F04002B9
:105DF0000A711A6A5869C97C8154D3E907210131B3
:105E0000013AC3E90721002AD6D119690B7962F357
:105E100086130B71D0E793F82A1089B319681E4CCA
:105E200091F90F104809203001F01F0102FA01F129
:105E300044F82010BFF34F8FBFF36F8F1969C879F3
:105E400040F08000C871087940F0100008710879AE
:105E50004FF0040C20F00800087181F801C0487967
:105E600020F00100487183F82C20C2E719690A79F3
:105E700042F010020A710A7942F008020A71B8E78A
:105E800019694A7A082002F0F7024A724870B0E7AE
:105E9000006000405801002000E100E0EFF30383C0
:105EA000103B5BB23549C03351F8232022F48032D5
:105EB00041F82320EFF30383103B5BB2304A52F8E2
:105EC000231091F82730002B37D191F829309BBB54
:105ED000CB69086910B4002B41D1C37923F080034A
:105EE000C022C37101E0013A02D0C379DB09FAD1C3
:105EF0000B68224993F9103003F1C00C002B51F8C4
:105F00002C2022F4803241F82C2009DB5A091D4C48
:105F100003F01F030121603201FA03F344F8223039
:105F2000C3795DF8044B43F04003C3717047022A04
:105F300009D191F8300030B9704791F8260091F8F6
:105F400028200328F3D0086991F824C080F812C0F3
:105F50000132013B81F8282081F8273070470A6A16
:105F60004C69013B14F802C080F812C00132C1E94B
:105F70000732002BB1D05DF8044B70470060004041
:105F80005801002000E100E010B4EFF30383103B60
:105F90002B4A5BB252F8233093F829201AB193F8B8
:105FA0002720012A47D0DA69D2B11969CA7922F0CB
:105FB0004002C023CA7101E0013B02D0CA795206F7
:105FC000FAD4EFF30383103B5BB21E49C03351F8A0
:105FD000232022F4803241F823205DF8044B7047DF
:105FE00093F82A10F9B11968174C91F90F10480964
:105FF00020304FF0010C01F01F010CFA01F144F8C0
:106000002010BFF34F8FBFF36F8F1969C87940F02D
:106010008000C87104204870487962F3000048711C
:1060200083F82CC0C2E719694B7A082203F0F70302
:106030004B724A70BAE793F83020002AB3D1B4E724
:10604000580100200060004000E100E070B582B01F
:10605000EFF30383103B4C4A5BB2E02152F823403C
:1060600023695A7A5972D0B202F00301D20616D5CA
:106070005A78560615D5A1B95A785506C2F380113B
:106080006CD4010742D594F82B20002A52D194F801
:106090002910B322C1F10301C9B2DA7125E0002948
:1060A000EFD0E269012184F82B10002A39D0206852
:1060B0000025DD7190F9116090F90F3090F90E20F4
:1060C000417B019690F9100000902046FFF790FD6B
:1060D00094F82610A2692369E56184F828102262E9
:1060E00084F82C50B322DA7101212046FFF762FDBB
:1060F000EFF30383103B5BB22449C03351F82320F4
:1061000022F4803241F8232002B070BD94F82C2094
:10611000002AEDD04207EBD594F82B20002AE3D1DA
:10612000B5E794F82C20002AC1D194F82B20002A3E
:10613000D8D0BCE7E26932B994F82C201AB994F8A7
:106140002B20002ACED0002294F82600A169E2611B
:1061500084F82800216284F82C20C3E784F82B10EF
:106160005A7A216802F0F702496A5A720820587078
:106170000A78012A14BF02220322DA705A7942F007
:1061800001025A71B4E700BF5801002000600040CE
:1061900010B582B0EFF30384103C164B164964B27D
:1061A00053F8242050790B5C03F00303032B0FD02A
:1061B000C03451F8243023F4803341F824309368FC
:1061C00023B1D268CDE900206846984702B010BDDF
:1061D000936823B1D268CDE9002068469847064A03
:1061E000C03452F8243023F4803342F8243002B013
:1061F00010BD00BF58010020006000400346D3E9F5
:106200000223002053607047D0E90123D26930B4E3
:10621000D2E9011444F00044D0685C61D2E904542E
:1062200040F0004041F000419861196100205D623A
:106230009C6230BC704700BF002800DA704710B481
:1062400000F16043114C03F561430901C9B283F8C1
:10625000001344F820200E4900F1C00200F01F0C8A
:1062600051F822304009800023F4803300F160406F
:1062700041F8223000F56140012303FA0CF3C0F825
:1062800080315DF8044B0360704700BF5801002067
:106290000060004070B5836984B004468C461646A1
:1062A00001AD9BB193E8070085E8070083F804C0BF
:1062B000E2691A609E60184662699047A3691BB143
:1062C00095E8070083E8070004B070BD2B46EDE7B2
:1062D00010B490F800C0486EBCF1030F1ED8013016
:1062E000AAB9019C496BE40754BF01F01F01C1F337
:1062F000044101F00C01A1F10401B1FA81F1490955
:10630000E2B921BB02225DF8044B5A60704790420B
:10631000E7D9013A5DF8044B1A6070470AB1904220
:10632000F8D8019C496BE40754BF01F01F01C1F389
:106330000441090981F00101002AE2D0824201D31F
:106340000029DFD103225DF8044B5A607047002812
:10635000D8D0F7E72DE9F0470B7C01220E4602FA70
:1063600003F103F5800303F5F0631B0211F0030F43
:10637000C0E902310CBF134600230374D6E90513AC
:10638000C3610023F769466084B0054641618361BB
:10639000EFF3108082F31088924A317C0129D2F801
:1063A00008118CBF6FF040046FF020042140C2F848
:1063B0000811D2F8082180F31088AC684FF4254208
:1063C0002260E362E363A36496F80090327A736814
:1063D000B9F1030F4FEAC25203F1FF3100F0E2803E
:1063E00084BF42EA09421946D7E906C0E2624FF08B
:1063F000004222616261A26100226262A262C4F86C
:106400001CC02062A1664FF0FF3061660021CDE91B
:106410000201D7F82CA0B9F1000F40F0AA805B0868
:10642000013B0293012103206365D7F82880A3650F
:10643000BAF1000F39D13B7803BBBA78534682B327
:1064400097F803C096F800E04FEA0C12BEF1020F75
:1064500042EA8C1200F0A98040F2B7804FF0030CA2
:1064600042EA0C0243EA024343F08073B8F1000FA2
:1064700020D1C4F83880C4F8888040E07A7896F853
:1064800000C01301BCF1020F43EA821300F09080B8
:1064900040F2A38003221343BA7843F48073002AA6
:1064A000CED1B8F1000F05D1E3E7B8F1000F00F04D
:1064B0008180534698F8022098F803C0120642EAF9
:1064C0000C7298F804C042EA0C42A263D8F8082083
:1064D000C4F88C20002A63D1D8F80C20003A18BFE9
:1064E0000122BAF1000F58D198F81CC098F81BE0AF
:1064F000C4F888204FEA4C6C4CEA4E22134397F8BC
:10650000212097F820C0520742EA4C3213434FF43F
:10651000AA02B9F1010F226402D10022E2642265CD
:10652000EA68E260636320632163717C96F912007C
:106530002A46FFF781FE97F8221097F924002A4691
:10654000FFF77AFE97F8231097F925002A46FFF700
:1065500073FEB8F1000F06D098F8001098F901000A
:106560002A46FFF769FE204B2B60002004B0BDE8EF
:10657000F087B9F1010F23D00092F268686802AB8E
:106580002146FFF7A5FEDDE90232110641EA02418C
:1065900041F0030041F0010146E7C4F88820B6E766
:1065A00001229EE742F480321EE74FF0090C57E7C4
:1065B000092270E7C4F838805346C4F88880A6E7FB
:1065C000494603204FF0FF332EE7BCF1000F0CBF0C
:1065D0004FF0060C4FF0090C42E7002A0CBF0622D0
:1065E000092258E7006F04405450470030B4426815
:1065F00092F91210D2690029034611DB48092E4D89
:1066000001F01F0C2030012404FA0CF445F820405E
:10661000BFF34F8FBFF36F8F2848002440F821400D
:1066200092F92410002911DB4809234D01F01F0CB9
:106630002030012404FA0CF445F82040BFF34F8FBA
:10664000BFF36F8F1D48002440F8214092F92510B8
:10665000002911DB4809184D01F01F0C20300124DE
:1066600004FA0CF445F82040BFF34F8FBFF36F8F4F
:106670001248002440F82140926AA2B192F9012008
:10668000002A10DB02F01F0451090120A040203134
:10669000094C44F82100BFF34F8FBFF36F8F0749B8
:1066A000002041F822009A68D9680020186030BCA8
:1066B00091605063704700BF00E100E05801002086
:1066C00030B4EFF30383103B5AB2184C02F1C00C04
:1066D00054F82C1021F4803144F82C10144951F84E
:1066E000220041680978012916D103F0FF0303F065
:1066F0001F039940D0E90253AB600023AB64EB6405
:106700002B6554F82C50520963F310456032094B45
:1067100044F82C5043F82210436923B1002230BCC6
:106720001146FFF7B7BD30BC704700BF00600040A6
:106730005801002000E100E01E4B10B4C3600B784C
:1067400003F001034370EFF3108C012484F31088ED
:10675000194BD3F8082122F48012C3F80821D3F88A
:1067600008318CF31088EFF3108C84F31088427892
:10677000D2B9C468237962F3861323718CF310882D
:106780004A684B78D278C468D201DB01D2B2DBB25E
:106790006271A3710123E3710A780270074B4360B1
:1067A0005DF8044B00207047C268137923F0800322
:1067B0001371E3E700E00540006F044000434144EB
:1067C000C3684278002023F812107047EFF310835B
:1067D000012282F310884278C1683AB90A7942F0FE
:1067E00040020A7183F31088002070470A7942F052
:1067F00080020A7183F3108800207047EFF3108144
:10680000012383F31088427842B9C068037962F3A8
:106810008613037181F3108800207047C2681379D2
:1068200023F08003137181F310880020704700BFAC
:106830000346EFF3108C012282F310884278C1687E
:1068400062B9087962F386100871087A62F38610DB
:1068500008728CF310880020586070470A7922F083
:1068600080020A710A7A22F080020A728CF3108880
:1068700000205860704700BFF0B5076A8BB006462D
:106880008C465FB3BE46BEE80F006C460FC4BEE840
:106890000F000FC49EE8030084E80300BCE80F006B
:1068A0003D460FC5BCE80F000FC59CE803008EE80D
:1068B0000300F36938469847336A6BB1EE469C464D
:1068C000BEE80F00ACE80F00BEE80F00ACE80F0018
:1068D0009EE803008CE803000BB0F0BD0F46E8E72C
:1068E00030B58BB0EFF30383103B5BB22E49C0335E
:1068F00051F8232022F4803241F82320EFF3038360
:10690000103B5BB2294850F82350282200216846EA
:1069100006F09DFB6C6894F84D380020DBB284F8DB
:106920004D08ADF80430B4F84218C1F30012C9069E
:1069300038D543F02003ADF80430022394F85328EF
:1069400084F8533894F8523803F01F03D2B2E11898
:1069500084F8532891F8202860F3820281F82028D7
:106960002A681268009269466A6A0393284604926C
:10697000FFF782FFB4F84238DB0611D52B681A699D
:10698000127D6AB193F91530002B09DB5A090848CA
:1069900003F01F030121403201FA03F340F82230D3
:1069A0000BB030BD1346DBE700600040580100200B
:1069B00000E100E02DE9F0418AB0EFF30383103BE2
:1069C0005BB23D49C03351F8232022F4803241F8B4
:1069D0002320EFF30385103D384B6FB2002253F8AC
:1069E0002700D0E9008494F8533884F8532894F8A9
:1069F000526806F01F06DBB206F1200284F8533815
:106A0000130105F0FF05E15854F803C0C1F380738A
:106A10008DF81930D8F810301B7B43EADC7303F093
:106A200001038DF81830002B42D1C1F38A4104EBE9
:106A300002120591938803F00F03082B9C4628BF90
:106A40004FF0080C8DF81AC06BB10DF11F02002336
:106A500004EB061E0EEB0301013391F8061202F857
:106A6000011F9C45F6D1D8F80030039626440093C8
:106A7000442386F82038002307934FF48063ADF851
:106A800004306946436A0493FFF7F6FEB4F84238CF
:106A9000DB070AD5002F08DB6B09094905F01F0544
:106AA00001224033AA4041F823200AB0BDE8F0811A
:106AB00021F06041BBE700BF0060004058010020AA
:106AC00000E100E070B58AB0EFF30383103B5BB2E6
:106AD0002149C03351F8232022F4803241F8232089
:106AE000EFF30383103B1D4A5BB2012652F823509B
:106AF0006C6894F8532884F8536894F85238D2B2EA
:106B000003F01F0384F853280393E2184FF4006343
:106B1000ADF804302B681B6800936B6A0493002364
:106B200082F82038694682F820382846FFF7A4FE0C
:106B3000B4F842389B070CD52B6893F91730002B1B
:106B400007DB5A09064903F01F0340329E4041F813
:106B500022600AB070BD00BF0060004058010020F4
:106B600000E100E08268117A01F00101137AC3F3B9
:106B700040039942FAD143681978012908D1C168C4
:106B800093F810C004484B1E9BB240F82C101380A1
:106B9000F1231372002070470C010020D0E902237A
:106BA000013BF1219BB2138000201172704700BF9E
:106BB00010B48268117A044601F00101137AC3F31C
:106BC00040038B42FAD16368F420002110721173E4
:106BD00093F9123013F1210F04D1002020605DF8E9
:106BE000044B70478B4210DB5A090C4801212032BC
:106BF00003F01F0301FA03F340F82230BFF34F8F75
:106C0000BFF36F8F636893F91230054A002042F892
:106C1000234020605DF8044B704700BF00E100E0B6
:106C2000580100200B7C03F1401303F500631B02A5
:106C3000F0B40446C0E90113EFF31085012383F398
:106C40001088087C384AC0F103008340D2F808015C
:106C500020EA0303C2F80831D2F8083185F310881E
:106C6000A26800231372137AC3F340009B07844683
:106C7000F9D49072C8690D7AC3780678007903F068
:106C80000703002E41D1002D46D110734868676874
:106C9000002696735372431E95729BB2E0603D7C52
:106CA0001380224B43F8250091F91230B34222DBC6
:106CB0004A7C03F1604000F561401201D2B280F8D5
:106CC00000231B4A1B4842F8234003F1C0055A0920
:106CD00050F82570920002F1604266F3104740F8C8
:106CE000257002F5614203F01F03012000FA03F34F
:106CF000C2F880311360D1E9055200200E4B2561A6
:106D0000C4E905022360F0BC7047502E06BF43F073
:106D1000500365463343B8E785F0020543EA05139F
:106D2000DBB23546B1E700BF006F04400C01002024
:106D3000580100200060004054474100F0B585B084
:106D4000EFF30383103B5BB21C491D4C03F1C00001
:106D500051F8202022F4803241F8202054F82340BA
:106D6000D4E901120978137A0129DBB204D1F421A4
:106D700003F0F003117213722769B7B1656901AEB0
:106D8000CDB195E8070086E807009B0644BF0023C5
:106D90002B71A3692B602846B84763691BB196E83D
:106DA000070083E80700A268137ADBB203F00F0341
:106DB000137205B0F0BD3546E7E700BF0060004044
:106DC00058010020034600201A689B8A13807047F0
:106DD00003681B88C3F3C03300200B70704700BFEB
:106DE00003681031002033F811301380704700BF62
:106DF00043682DE9F041D1E901250C685E6903681B
:106E00001FFA84F8A3F804801FFA82F8A3F814800C
:106E100022F0405C1FFA85F824F0405E25F04057D0
:106E20002243A3F808804FEA1C4C3F0C4FEA1E484F
:106E300012F0405FA3F80680A3F816C05F8154D11A
:106E4000CA68002A00F0938015892F0522D5D2E95F
:106E500000C7B2F80A80A3F89050A3F89C80B2F85B
:106E60000C80A3F89E801FFA8CF8A3F89480CCF3D2
:106E70000B484FEA1C7CA3F8968083F892C01FFA57
:106E800087FCA3F898C0C7F30B4C3F0FA3F89AC038
:106E900083F89370AF051AD40A8AA3F89050A3F828
:106EA0008020F2786AB11A88818A92B222F01F0299
:106EB000BEFA8EFE1F32A2EB0E0292B211431A806E
:106EC00081822C4BC0E903340020BDE8F081977C1F
:106ED00092F813C047EA0C0783F8A670D789128A84
:106EE000A3F8A870A3F8AA20D6E7234FD7F82080EC
:106EF000224F3F68C8F3026C07FA0CFCC8F3021873
:106F00001F4F2CFA08FCA7FB0C7C4FEA9C1C1D4F62
:106F100041F2883808FB0CFCA7FB0C7C4FEA9C4C28
:106F20000CF1010CBCF1070F38BF4FF0070C12F049
:106F300080570AD05FFA8CF715F0805F83F8DE7017
:106F400040F2011708BF4FF48077920009D55FFA2D
:106F50008CFC47F40077AA0083F8DFC048BF47F0F5
:106F60000207CA68BFB25F82002A7FF46DAF154680
:106F700092E700BF4344415200E00140E401002099
:106F8000D34D621083DE1B432DE9F8430B880C467A
:106F90005B0222696669C968026203F1804303F5F6
:106FA000B8230022036081614460C2613179627953
:106FB0000546A0788F074FEA0223F17843EA403371
:106FC00054BF43F0400343F48863002900F0DF809E
:106FD00043F42073022A08BF764A9BB208BF32F8F6
:106FE00021C0AB8218BF4FF0000C2279E17896F8EF
:106FF00000E0D20342EA4102717842EA4110EFF325
:107000001088012181F310886B4F2288D7F80891EE
:10701000C2F1100201FA02F229EA0202C7F80821BD
:10702000D7F8082188F3108847F6FF572A6880B2FE
:107030003B401380A2F810C0D08182F80CE0337975
:10704000980700F1AD8082F88A3094F90630002B61
:1070500022DB227A594803F1604101F561411201B6
:10706000D2B281F80023564A03F1C00742F82350F8
:1070700050F827105A09920021F4803102F1604241
:1070800040F8271002F5614203F01F03012101FAC5
:1070900003F3C2F88031136094F90730002B22DB30
:1070A000627A464803F1604101F561411201D2B2B2
:1070B00081F80023424A03F1C00442F823505A09E0
:1070C00050F82410920021F4803102F1604240F81F
:1070D000241002F5614203F01F03012101FA03F3BA
:1070E000C2F88031136096F90630002B22DB327A29
:1070F000324803F1604101F561411201D2B281F8D9
:1071000000232F4A03F1C00442F823505A0950F8D3
:107110002410920021F4803102F1604240F82410E2
:1071200002F5614203F01F03012101FA03F3C2F8E3
:107130008031136096F90730002B22DB727A2048E9
:1071400003F1604101F561411201D2B281F80023DF
:1071500040F82350194903F1C00051F8202022F4CF
:10716000803241F820205A09920002F1604202F573
:10717000614203F01F03012101FA03F3C2F88031D9
:107180001360104BAB6000202861BDE8F883002A33
:107190007FF420AF43F400439BB2AB82944624E7D4
:1071A00043F0030382F88A30084600F03DF92A686C
:1071B000337948E7B8D40000006F04400060004015
:1071C000580100204344415270B403460020C3E9F3
:1071D00002005A6892F906105469814211DB4A098B
:1071E000354E203201F01F0C012505FA0CF546F84A
:1071F0002250BFF34F8FBFF36F8F304A42F8210008
:107200005A6892F90720002A11DB51092A4D02F031
:107210001F0C2031012000FA0CF045F82100BFF3CB
:107220004F8FBFF36F8F2549002041F8220094F95A
:107230000620002A11DB51091F4D02F01F0C2031DE
:10724000012000FA0CF045F82100BFF34F8FBFF387
:107250006F8F1A49002041F8220094F90720002A74
:1072600010DB02F01F0451090120A0402031124C14
:1072700044F82100BFF34F8FBFF36F8F0F490020F9
:1072800041F822001A68002010821080EFF3108469
:10729000012282F310885968094B0988C1F1100155
:1072A0008A40D3F808110A43C3F80821D3F80831FB
:1072B00084F3108870BC704700E100E058010020A2
:1072C000006F0440064B074993F826001A6A51F8EC
:1072D00020300549C2F30262D3400B60704700BF03
:1072E00000E00140D4000020E401002038B5434B09
:1072F000434C444844494AF20355A3F8FE53002244
:10730000424DA0F8002121604FF4004193F826007F
:10731000C4E90151C4E90321196A626154F82020CB
:107320003B4DC1F30261CA40082009212A6083F85D
:10733000130483F8A21093F88024002A55D02F4B11
:10734000002283F8812483F8802493F8A0208AB156
:1073500093F83620002A3FD0284A92F8A030D80669
:10736000C3F30011F9D4254882F8A01090F8A0309A
:10737000D906FBD4214B002283F8362093F83C2019
:10738000D207FBD50121002283F8311083F8262093
:10739000204A1A6293F8262054F822001C6A194ADF
:1073A000C4F30264E04028604FF0040C842083F8AA
:1073B0003EC083F83E004FF4254083F8D010A3F878
:1073C000FE03A2F80411B2F804319BB2002BFAD1EB
:1073D0000123A2F8003138BD93F83C20D207BBD47A
:1073E00093F83C20D207F7D5B6E7012183F8801443
:1073F00040F2C44000F018F8A1E700BF00E00140EF
:10740000D400002000C00140006CDC0200127A00B1
:10741000E401002000010110704700BFA0F101004D
:107420000028FBD1704700BF30B400FB01F1104DC4
:10743000104A2868B2FBF0F24FF47A73A1FB03C440
:107440003CB9BCFBF2FC4FEA9C0070B130BCFFF7CA
:10745000E5BF9200B1FBF2F1A1FB03134FF0FF3047
:10746000002BF3D108460028F0D130BC704700BF94
:10747000E401002000CA9A3B0B4B70B5B3F84051B1
:107480000A4E0024ADB225FA04F3DB0704D556F802
:107490002430E0B203B198470134102CF3D1024BF1
:1074A000A3F8305170BD00BF0060004014010020FF
:1074B000084B10B4084C03F1200C5842C21813F8C2
:1074C000011FC032634544F82210F7D15DF8044B28
:1074D000704700BF27D6000000600040EFF3108126
:1074E000012383F31088124B33F8102092B22AB193
:1074F00033F81020013A92B223F8102033F81030FC
:107500009BB293B90B4A10B4B2F8FE330A4C9BB24B
:1075100034F8100043F4254323EA0003A2F8FE33B5
:1075200081F310885DF8044B704781F31088704731
:10753000D801002000E00140C4D4000030B4EFF3D3
:107540001081012383F310880E4A32F810309BB269
:107550006BB90D4C0D4DB4F8FE3335F810C09BB22D
:1075600043EA0C0343F425439BB2A4F8FE3332F8FC
:10757000103001339BB222F8103081F3108830BCF8
:10758000704700BFD801002000E00140C4D40000D3
:107590000B4A08B50346106840B10333094923F08C
:1075A000030303448B4204D8136008BD06481060EF
:1075B000F3E705F02BFD0C2303604FF0FF3008BD0F
:1075C000E0010020007B00203014002000BE704746
:1075D00008B500F005F8FCF7AAFDFEE7704700BF0C
:1075E00070B5464B464A47484FF47004C3F888408C
:1075F0004AF2025198600123A2F8FE1382B082F889
:107600001F3492F8B134DB06FBD54FF42546A2F8BF
:10761000FE6300200024FFF7E1FFFFF767FE8DF80F
:10762000074001209DF80730FFF788FFEFF3108136
:10763000012585F31088344BD3F8042122F0004251
:10764000C3F80421D3F8042181F310882F4A11686C
:10765000C1F300018DF807101168C1F300018DF826
:1076600007101268C2F300028DF80720EFF31081B3
:1076700085F31088D3F8042142F00042C3F80421B6
:10768000D3F8043181F310882846FFF727FF2846F6
:10769000FFF7A4FF1E4B1F499C801F4A1E80996064
:1076A0001E49D9604FF48051A2F820111C481D4A90
:1076B0009D80121A214605F0CAFC1B481B4A1C4932
:1076C0001C4D121A05F0B8FC1B4B5B1BA3424FEA82
:1076D000A30605DD55F8043B01349847A642F9DCC2
:1076E000FFF7F0FD0220FFF779FFFFF7E1FE002032
:1076F00002B0BDE87040FFF78FBE00BF00ED00E0B4
:1077000000E0014000400000006F04400008044019
:10771000000D0040007B002000600040007F002042
:10772000F00000203014002000000020D4000020D1
:10773000B4D6000098000020C00000200022027093
:10774000C0E9012280F83520012280F83620DF22AE
:10775000827770472DE9F04704464FF000081F4636
:107760009DF8283080F8008021730375089B036121
:10777000099B83610B9B03620C9BDFF84091C0E97E
:107780000938FF238A4643771546002A3ED184F8FC
:107790003520502004F041FE4FF6FF73A0F8423030
:1077A00000F12008DF2380F8205080F8215080F875
:1077B000225080F82350C0E90955C562C0E90E5532
:1077C000C0E90C5580F8443080F8453080F84050CE
:1077D00080F84150C0E91255C4F82880202229467B
:1077E000064605F034FC072FA6605AD8314ABAF194
:1077F000020FD35D114642D099F80000002856D1FF
:10780000002B4ED102232777D35548E0012A48D1D7
:1078100084F83520242004F000FE837880F800806E
:1078200068F3020383704378C57003F0F80368F3CC
:1078300006130646437080F8048080F8058080F8BF
:107840000680A0621C224146083005F000FC012F92
:10785000666026D8184BBAF1020FDA5D194602D0DD
:1078600099F8000028B1012A1BD802232777CB55AD
:1078700015E0B2B90222DA552777257011E0012B05
:10788000F3D92777384601F005FC3022816A40465B
:1078900005F0D2FB384601F0FDFB036BA361012329
:1078A0002370002389F800302078BDE8F087012B91
:1078B000DAE700BFEA010020E8010020F201002021
:1078C00038B590F8353004468BB9806808B9002087
:1078D00038BD04F10C01FEF73DFD0546A068FEF73A
:1078E00093FC0E2D01D0002DF1D10120F0E7012BEA
:1078F000EDD140680028EAD004F10C010830FFF710
:1079000091F9054660680830FFF748F9E9E708B5DE
:1079100090F835303BB9806820B1FEF76FFCB0FAC3
:1079200080F0400908BD012B06D140680028F9D03D
:107930000830FFF717F9F2E70020F3E708B590F8F1
:1079400035303BB9806820B1FEF750FEB0FA80F0C8
:10795000400908BD012B06D140680028F9D0083045
:10796000FFF726F9F2E70020F3E7FFFF38B50446FA
:10797000FFF7E4FF606838B1237F0C4A002524211B
:10798000D55404F039FD6560A56875B1237F084AB8
:10799000A86C0021D15410B1202104F02DFD5021FC
:1079A000284604F029FD0023A36038BDE80100202B
:1079B000EA01002010B50446FFF7D8FF204610BDAD
:1079C00001F10C0303608B6803B1203343604B6803
:1079D00083607047836823B11868003018BF0120A6
:1079E000704740680028FBD08068F6E7F0B585B0A6
:1079F00004460F46014601A81546FFF7E1FF204661
:107A0000FFF7E8FF064610B12046FFF797FF00F0AA
:107A100057F82A4601A900F01FF9054650B16777CB
:107A20002EB12046FFF74CFF2046FFF770FF284697
:107A300005B0F0BDDF23A377F2E7FFFF0028A8BF62
:107A400000F160404FEA0111AEBF00F5614000F067
:107A50000F00034BC9B2ACBF80F800131954704734
:107A600014ED00E000F1C0020A4B53F822106FF34E
:107A7000104143F8221000F01F024009800000F17D
:107A8000604000F5614001239340C0F880310360FD
:107A9000704700BF006000404309012200F01F0052
:107AA00002FA00F02033044A42F82300BFF34F8F5C
:107AB000BFF36F8F704700BF00E100E07047FFFF2A
:107AC00038B50A4D2B78BFF35B8F13F001040BD14F
:107AD000284604F093FC38B1054B28461C6004F09E
:107AE00099FC044801F01EFD014838BDF401002056
:107AF000F8010020BD7A00002AB9304BC0310122C4
:107B000043F821207047012A03D1C0312B4B0222B8
:107B1000F6E7022A03D1C031284B0322F0E7032AFB
:107B200003D1C031254B0422EAE7042A03D1C03136
:107B3000224B0522E4E7052A03D1C0311F4B062260
:107B4000DEE7062A03D1C0311C4B0722D8E7072AFB
:107B500003D1C031194B0822D2E7082A03D1C03122
:107B6000164B0922CCE7092A03D1C031134B0A2254
:107B7000C6E70A2A03D1C031104B0B22C0E70B2AFB
:107B800003D1C0310D4B0C22BAE70C2A03D1C0310E
:107B90000A4B0D22B4E70D2A03D1C031074B0E2248
:107BA000AEE70E2A03D1C031044B0F22A8E70F2AFB
:107BB000A8D1C031014B1022A2E700BF00600040F5
:107BC00032B91A4BC0315D2243F8212001207047A1
:107BD000012A05D1C031154B652043F82100F5E796
:107BE000022A03D1C031114B6D22EDE7032A03D1E4
:107BF000C0310E4B7522E7E7042A03D1C0310B4B8D
:107C00007D22E1E7052A03D1C031084B8522DBE75D
:107C1000062A03D1C031054B8D22D5E7072A03D1AF
:107C2000C031024B9522CFE7002070470060004032
:107C300032B9C031074B1E2243F821200120704782
:107C4000012A05D1C031034B212043F82100F5E77B
:107C50000020704700600040F8B50E4601681B4BDD
:107C60001F29054617469C682CD8336893F91220C3
:107C7000213201D00120F8BD7268403482B11A7CF3
:107C8000FFF79EFF0028F5D03268082353742B6855
:107C90009374A7B90E4A44F8232001332B60EAE716
:107CA000B2688AB11A7CFFF7C3FF0028E2D03268BD
:107CB000082353742B6893740FB9064AEBE744F812
:107CC0002370EAE70020D6E71046D4E700ED00E095
:107CD000C16600003D6D00002AB9064BC031362256
:107CE00043F821207047012AFCD1C031014B3B22CF
:107CF000F6E700BF006000402AB9064BC0313522CC
:107D000043F821207047012AFCD1C031014B3A22AF
:107D1000F6E700BF006000402AB9064BC0313722A9
:107D200043F821207047012AFCD1C031014B3C228D
:107D3000F6E700BF006000402AB9064BC031382288
:107D400043F821207047012AFCD1C031014B3D226C
:107D5000F6E700BF006000402AB90C4BC031992201
:107D600043F821207047012A03D1C031074B9F22DD
:107D7000F6E7022A03D1C031044BA422F0E7092A16
:107D8000F0D1C031014BA922EAE700BF00600040FA
:107D90002AB90C4BC031982243F821207047012AA0
:107DA00003D1C031074B9E22F6E7022A03D1C0312E
:107DB000044BA322F0E7092AF0D1C031014BA822DD
:107DC000EAE700BF006000402AB90C4BC0319A229C
:107DD00043F821207047012A03D1C031074BA0226C
:107DE000F6E7022A03D1C031044BA522F0E7092AA5
:107DF000F0D1C031014BAA22EAE700BF0060004089
:107E00002AB90C4BC0319B2243F821207047012A2C
:107E100003D1C031074BA122F6E7022A03D1C031BA
:107E2000044BA622F0E7092AF0D1C031014BAB2266
:107E3000EAE700BF006000402AB9064BC031AE221D
:107E400043F821207047012AFCD1C031014BB322F5
:107E5000F6E700BF006000402AB9064BC031AD22F2
:107E600043F821207047012AFCD1C031014BB222D6
:107E7000F6E700BF006000402AB9064BC031B122CE
:107E800043F821207047012AFCD1C031014BB622B2
:107E9000F6E700BF006000402AB9064BC031B022AF
:107EA00043F821207047012AFCD1C031014BB52293
:107EB000F6E700BF006000402DE9F84FB44B9F6823
:107EC00003681F2B0446154603D9002062B6BDE89F
:107ED000F88F403772B6012940F09080002AF4D024
:107EE0009368213340F08880036812681A441F2A7F
:107EF000EBD86A68DFF8B48247F82320C033332216
:107F000048F8232090F90000FFF7C6FD94F90030EF
:107F1000C0330C2158F823206FF3104248F8232077
:107F200094F90000FFF78AFD94F90000FFF79AFD2D
:107F30002368AB605A1C69682260C13347F822107D
:107F4000342248F8232094F90000FFF7A5FD94F9A6
:107F50000030C0330C2158F823206FF3104248F84A
:107F6000232094F90000FFF769FD94F90000FFF762
:107F700079FD236869685A1CC133226047F82210D2
:107F8000312248F8232094F90000FFF785FD94F989
:107F90000030C0330C2158F823206FF3104248F80A
:107FA000232094F90000FFF749FD94F90000FFF742
:107FB00059FD236869685A1CC133226047F82210B2
:107FC000322248F8232094F90000FFF765FD94F968
:107FD0000030C0330C2158F823206FF3104248F8CA
:107FE000232094F90000FFF729FD94F90000FFF722
:107FF00039FD236801332360012067E702290DD191
:10800000002A3FF462AF93682133F5D1006813680A
:1080100018441F288CBF0020012057E7032911D1E5
:10802000002A3FF452AF92F912302133E4D10E23EB
:1080300053740168574B917447F82130127CFFF755
:10804000F7FDD6E7042949D1002A3FF43EAF92F963
:108050000730213331D101680B1D202B3FF635AF9E
:108060000C264D4BD171967147F821301278FFF7ED
:1080700073FE0168494B0131016069722E7247F845
:1080800021302A78FFF7A0FE0168454B01310160DD
:1080900069712E7147F821302A78FFF779FE01685F
:1080A000404B01310160AE72E97247F821302A7805
:1080B000FFF7A6FE03680133036095F90700FFF799
:1080C000D1FC95F90900FFF7CDFC95F90500FFF704
:1080D000C9FC95F90B00FFF7C5FC8DE7002940F0BE
:1080E0009480002A3FF4F1AE137A3BBB126892F9F8
:1080F0000D3021331ED10C231373036853732A4AA6
:1081000047F82320C033294A262142F823102B6840
:10811000686893F90D101B7B01F160421B0102F5A9
:108120006142DBB282F80033214B43F8210023681F
:10813000013323602B6893F90D00CCE7012B39D173
:10814000126892F90F3021331ED10C239373036808
:10815000D373154A47F82320C033144A272142F825
:1081600023102B68686893F90F109B7B01F1604224
:108170001B0102F56142DBB282F800330C4B43F87D
:1081800021002368013323602B6893F90F00A2E7D5
:1081900000ED00E03D6D0000394E0000C1500000D0
:1081A000354F0000015100005956000000600040AA
:1081B00058010020022B7FF488AE126892F911302A
:1081C00021331ED10C23137403685374A84A47F853
:1081D0002320C033A74A282142F823102B6868685F
:1081E00093F911101B7C01F160421B0102F5614201
:1081F000DBB282F80033A04B43F82100236801333F
:1082000023602B6893F9110065E7052973D1002AD3
:108210003FF45BAE16680C23737396F90F3021336D
:1082200048D101680B1D202B3FF64FAEF173327819
:10823000DFF87882DFF84092FFF74EFD90F90030CA
:1082400008EB03024FF0C00A82F800A3016849F866
:10825000236001312B680160B1731A78FFF74CFD80
:1082600090F9003008EB030282F800A3016849F896
:10827000236001312B68016031741A78FFF74CFDDF
:1082800090F9003008EB030282F800A3016849F876
:10829000236001312B68016071741A78FFF74CFD7F
:1082A00090F90030984488F800A349F823600368E7
:1082B0000133036096F90F00704B47F8203096F9B0
:1082C0000E306F4A47F8232096F910306D4A47F870
:1082D000232096F911306C4A47F82320FFF7C2FBA0
:1082E00096F90E00FFF7BEFB96F91000FFF7BAFBF8
:1082F00096F91100EFE6062956D1002A3FF4E5ADC4
:1083000016680C23737396F90F30213341D101683D
:10831000CB1C202B3FF6D9AD5C4BF17347F82130D5
:108320003278DFF88881DFF85091FFF715FD90F97A
:10833000003008EB03024FF0C00A82F800A3016886
:1083400049F823600131524B0160B17347F8213085
:108350002B681A78FFF71CFD90F9003008EB030238
:1083600082F800A3016849F823600131494B01609C
:10837000317447F821302B681A78FFF725FD90F902
:108380000030984488F800A349F82360036801335B
:10839000036096F90F00FFF765FB96F90E00FFF7F3
:1083A00061FB96F9100096E607294CD1002A3FF4AC
:1083B0008CAD556840F60C432B8295F90D30213376
:1083C00020D101680B1D202B3FF67FAD69732A7801
:1083D000FFF782FC0168013101602A782973FFF7F9
:1083E0008BFC0168013101602A78A973FFF794FCC6
:1083F0000168013101602A78E973FFF79DFC036889
:108400000133036095F90D00234B47F8203095F9AF
:108410000C30224A47F8232095F90E30204A47F8BD
:10842000232095F90F301F4A47F82320FFF71AFB46
:1084300095F90C00FFF716FB95F90E00FFF712FBFC
:1084400095F90F0047E6082932D1002A3FF43DADE7
:1084500092F9023021337FF4CFAD0C2353700168C1
:10846000114B917047F821301278FFF745FBC0E5BA
:10847000C156000000600040580100209D5E0000D1
:10848000615D0000895F00004D600000CD53000079
:10849000AD530000695500007559000055580000A3
:1084A000195A0000AD5A00009161000000E100E09F
:1084B000092978D1002A3FF408AD566896F90230B0
:1084C000213365D101680B1D202B3FF6FEAC92F8DD
:1084D00008A0AC4BD2F80090B1704FF0060B86F8B4
:1084E00006B0524647F82130FFF7A6FCA64D96F994
:1084F0000220B379DFF8BC82A9181B01DBB281F836
:1085000000330168A14B48F82290013101605246C6
:10851000717086F805B047F82130FFF79DFC96F999
:1085200001207379A9181B01DBB281F800330168BF
:10853000974B48F82290013101605246317186F81C
:1085400008B047F82130FFF7A7FC96F90420337AEA
:10855000A9181B01DBB281F8003301688D4B48F884
:108560002290013101605246F17086F807B047F859
:108570002130FFF781FC96F90320F37915441B01A4
:10858000DBB285F80033036848F8229001330360BA
:1085900096F90200FFF766FA96F90100FFF762FA12
:1085A00096F9040097E50A297CD1002A3FF48DACA6
:1085B000566896F90230213365D101680B1D202BD6
:1085C0003FF683AC92F808A0734BD2F80090B170DC
:1085D0004FF0060B86F806B0524647F82130FFF7F9
:1085E000BBFB694D96F90220B379DFF8C881A91861
:1085F0001B01DBB281F800330168684B48F8229018
:10860000013101605246717086F805B047F821309B
:10861000FFF7BEFB96F901207379A9181B01DBB2A5
:1086200081F8003301685E4B48F822900131016007
:108630005246317186F808B047F82130FFF7E0FB69
:1086400096F90420337AA9181B01DBB281F80033B4
:108650000168544B48F82290013101605246F17094
:1086600086F807B047F82130FFF7AEFB96F90320F4
:10867000F37915441B01DBB285F80033036848F831
:1086800022900133036096F90200FFF7EBF996F9A7
:108690000100FFF7E7F996F90400FFF7E3F996F90F
:1086A000030018E50B297FF410AC002A3FF40DAC51
:1086B000D2E900150C232B7595F91530213356D1CD
:1086C0000368DA1C202A3FF600AC374A6B7547F87E
:1086D00023202A6822B9C033344A4A2042F82300B2
:1086E00095F915002B7D324E00F1604202F5614292
:1086F0001B01DBB282F8003322682E4B43F82010B6
:10870000501C2060A87547F82060286820B9C13245
:1087100026484D2640F8226095F916602A7D06F11C
:10872000604000F561401201D2B280F80023226857
:1087300043F82610501C204E2060E87547F8206052
:10874000286820B9C13219484E2640F8226095F9B0
:1087500017602A7D06F16040120100F56140D2B237
:1087600080F8002343F8261023680133236095F92D
:108770001500FFF777F995F91600FFF773F995F9EA
:108780001700A8E42D43000000E100E09142000042
:10879000D9440000F9430000B95100002152000003
:1087A000D152000095520000E168000000600040D6
:1087B000B569000058010020C56A000008B53C22D8
:1087C0000021024804F043FC08BD00BFFC0100206A
:1087D00070B50024064D264655F8240020B12C2102
:1087E00003F00AFE45F8246001340F2CF4D170BD6B
:1087F000FC0100200020704701207047036840F210
:1088000013421B6A1847D0F82C322BB1D0F828320B
:10881000184490F8240070474FF0FF30704713B5AC
:10882000044690F8A8048DF8071070B1002384F86E
:108830003C3401220DF1070104F58860FBF7BAFE14
:1088400094F83C34002BFBD0012002B010BD002373
:10885000C0F82432C0F82832C0F82C32C0F83034C6
:10886000C0F83434C0F8383400F58860FBF718BF1E
:10887000036813B962B6BFF36F8F70470268204B6D
:1088800053F8223013B54BB10279042A08D0802A5C
:1088900001D0022A02D1012283F83C2402B010BD8B
:1088A000D3F82C22B2F5007FF8D0007AEFF31082D3
:1088B00000920122019272B6019A013A511C1AD01B
:1088C000D3F82C12B1F5007F02F1FF3411D0D3F8A8
:1088D0002412194481F82400D3F824120131C1F381
:1088E0000801C3F82412D3F82C120131C3F82C125A
:1088F000E3E72246E2E768460192FFF7B9FFCDE7DA
:108900003802002013B5EFF3108300930123019385
:1089100072B6019B5A1E0192E3B1D0F82C32B3B16A
:10892000D0F82832034493F82440D0F82832013399
:10893000C3F30803C0F82832D0F82C32013BC0F84A
:108940002C326846FFF794FF204602B010BD4FF06E
:10895000FF34F6E76846FFF78BFF4FF0FF34F3E78D
:1089600038B5044600254FF47A70C4E90150A3617C
:108970001648049BE361C4E90412206029464FF4C1
:10898000007204F1240004F062FBC4F824524FF496
:108990000072C4F828522946C4F82C5204F50C7011
:1089A00004F055FBDF23C4F8305484F8A854C4F80D
:1089B000345484F87734C4F8385484F8793484F81B
:1089C000753484F87B34204638BD00BFD4D4000011
:1089D00010B50C46FFF774F822460421BDE810409C
:1089E000FFF76ABAF0B50369002B85B0044602DAD6
:1089F000002005B0F0BD4269002AF9DB8B42F7DAAE
:108A00008A42F5DAD9B20022684602AE03F084FC4D
:108A10000122217D304603F07FFC00223DF81250F8
:108A20000021AB11002D45D036F81200002841D0AE
:108A300036F8110083EA9017FF063BD103F01F03BD
:108A400023620028D4D0092BD2DC15F4F04F23691F
:108A50001C4E0CBF4FF080624FF0A06236F833100E
:108A600010F4F04F42F4803217480CBF4FF080658D
:108A70004FF0A065FCF74CFE6369134836F83310DD
:108A800045F480352A46FCF743FEA3695A1C0FD0F3
:108A9000E26901320CD036F833100B482A46FCF755
:108AA00037FEE369084836F833102A46FCF730FEF3
:108AB00001209EE701310329B4D10132032AADD14F
:108AC00096E700BFACD300002C1300202DE9F04145
:108AD00004460E461546FBF72FFB01462046FFF7DE
:108AE00081FF84F8A804002800F0BD8094F8911458
:108AF0005E4B226A6FF3010184F89114192143F847
:108B00002240A4F8921494F89034012184F895142A
:108B10000F2103F0E70384F89C144FF6FF7143F034
:108B20004003A4F89E14A1696FF3820384F8903483
:108B300004F592670023013184F8943484F8963464
:108B4000C4F8987484F8A03405D0E16901311CBFE1
:108B5000082184F8A01484F8702404F29442C4F824
:108B60008C2440F213424FF6FF71954284F8A234F0
:108B700084F8A334A4F8A414C4F88834C4F8803466
:108B8000C4F87C343ED02DD840F21142954248D0F2
:108B900040F2124295424AD0354BC4F8843404F571
:108BA0008E6841462046FFF713FF94F8A83418401A
:108BB00084F8A80401213B4640F6B8323046FCF761
:108BC00049F894F8931429B93B4640F6B832304638
:108BD000FCF740F804F5886541462846FBF7EEFDB2
:108BE00078B3FEE740F23242954225D040F233425C
:108BF00095420FD040F231439D42CDD1022384F8FB
:108C000071340AE0022284F8712484F8723484F802
:108C10007334C1E7022284F8712484F8723401238A
:108C2000F5E7022284F8712484F87224EFE7022227
:108C300084F871240322F7E7022384F871340323B4
:108C4000EBE739462846FBF709FD00B1FEE7C4F81B
:108C50002402C4F82802C4F82C02C4F83004C4F872
:108C60003404C4F83804BDE8F08100BF38020020A5
:108C70007D88000013B5EFF3108300930123019367
:108C800072B6019B5A1E01923BB1D0F80842684669
:108C9000FFF7EEFD204602B010BD6846FFF7E8FD85
:108CA0004FF0FF34F6E708B52430FFF7E3FF08BDC7
:108CB00010B500F50C742046FFF7DCFF0028FAD150
:108CC00010BDFFFF07B54FF0FF33009307220621C9
:108CD0000248FFF745FE03B05DF804FB6002002088
:108CE00007B54FF0FF3300930B220C210248FFF72A
:108CF00037FE03B05DF804FB0C0700200148FEF7C7
:108D00001DBD00BFB80B00200148FEF753BE00BFD9
:108D1000B80B0020F8B5094F054600240126AA6CBF
:108D200006FA04F3134205D007EB440261B2284669
:108D3000FEF756F801341D2CF1D1F8BDFC0B0020D4
:108D4000837870B5044683B90E4D2A68AAB10388AA
:108D50003BB90D48FFF7DEFF2B682078BDE8704077
:108D60001847012BF8D10948F4E7012B05D00A2B4D
:108D700004D1074B1B68002BEFD170BD0B2BFCD12E
:108D8000044BF7E7F00B0020380C0020940C002077
:108D9000F40B0020F80B0020F0B5044685B0002845
:108DA00043D0002380F83230C1F38415836C01274F
:108DB00007FA05F21343836400F13001FEF7E4F88B
:108DC00004AE04F148012046FEF712F82046FDF7F4
:108DD000F9FF06F8047D9DF80C30012B04D13146D3
:108DE0002046FDF7F5FFF6E70DF10E022946204675
:108DF000FDF7F6FF0E4BBDF80E0093F83330052B50
:108E00009CBF0C4AD2560C4B1B684FF0010101FA73
:108E100003F388BF00220093002301FA02F21946EF
:108E200000F082F980B205B0F0BD4FF0FF30FAE7F4
:108E3000380C002000D500000000002013B50A22E5
:108E40000C46C1B2684603F067FABDF800205AB17B
:108E5000064B074902F4F040B0F5006F0CBF18460E
:108E60000846228002B010BD1046FAE7940C00209C
:108E7000380C0020F0B5012680F82560C0E90F23EA
:108E8000022600F12403002540F60C4780F82660F6
:108E90000186DF26032143644FF4C05380F8245039
:108EA00080F8275080F8285080F8295080F82A60F0
:108EB00080F82B60878580F8325080F8331080F876
:108EC000345080F8355080F8366080F83760078776
:108ED000C0E91255C0E91455A0F85850A0F85A300E
:108EE000F0BD10B50446406D10B1142103F084FAB2
:108EF000204610BD37B502A9002321F8023D0546E2
:108F0000FFF79CFF074B04464FF4004133F8350050
:108F100000F04CFBBDF806102046FFF73DFF03B004
:108F200030BD00BFACD30000042838B598BF104B4B
:108F3000104C98BF1D5CA36888BF002513B1204664
:108F4000FEF742F90C4984F828500C4CA1F130008E
:108F5000FEF71AF8A36813B12046FEF735F9084961
:108F600084F82850A1F13000BDE83840FEF70CB875
:108F700006D50000380C0020680C0020940C00205E
:108F8000C40C0020FFFFFFFF2DE9F04D3C4B93F890
:108F90002830192B2DED028B6BD057D8012B62D0C6
:108FA000022B63D0374CD4ED007AF5EE407AF1EE27
:108FB00010FA48D10020FFF7B7FF052000F006FBAC
:108FC0000FF2B40BDBE900AB9FED2F8ADFF8C08016
:108FD0000A251620FFF78EFF07EE900AF8EEE77AD3
:108FE00067EE887A17EE900A03F096FB52465B46CE
:108FF00003F0EAFBD8F800300646012098400F46FF
:1090000003F078FB02460B463046394603F006FD76
:10901000064620680F4603F07FFB02460B463046AB
:10902000394603F01BFA03F0E1FD013D07EE900A1B
:109030002060CED1F2EE046A87EEA67A052084ED98
:10904000007AFFF771FF94ED000A08E01D2B04D0B1
:109050001F2BA7D1B0EE040A01E0B0EE000ABDEC70
:10906000028BBDE8F08D9FED090AF8E79FED060A37
:10907000F5E7B7EE080AF2E7295C8FC2F5A82040B1
:10908000380C0020F00C00203D0AB73F0000C07FE4
:109090000000002030B5094B53F8144B00218C42DE
:1090A00007D053F8042F92F82450A84202D001317F
:1090B000F5E7002202F1080030BD00BFF40C0020EB
:1090C00038B50E4C0E4D0F48002322461946FFF7C7
:1090D000D1FE002301210C48FFF7CCFE28460024D6
:1090E000214640F8044B142203F0B1FF50222146E0
:1090F00005F1180003F0ABFF38BD00BF418D000043
:10910000F40C0020380C0020940C002008B5044812
:10911000FFF7E7FE0348BDE80840FFF7E2BE00BFE7
:10912000940C0020380C002010B5029C401AE41A60
:109130006043521A90FBF2F0184410BD2DE9F04F35
:10914000027D012A85B005460F4640F09780002138
:109150004FF0FF3B04460B465E4694F804C048B20D
:10916000BCF1000F7CD194F805C0BCF1000F77D1A1
:10917000B6F1FF3F1BBF01335BB201233046934280
:1091800001DD1A4683460131082904F1020465D144
:10919000002402EB0B03A1460293CB4502DC029BA9
:1091A0004B4560DC6E7995F804A04FEA26180AF06A
:1091B0000F035FFA88F25FEA2A1A019206F00F069F
:1091C00077D05FFA8AF1BAF1090FCABF573130314F
:1091D00049B23846039300F0D3F8039B0444092BAB
:1091E0008ABF03F1570103F1300149B238460393B6
:1091F00000F0C6F80444BAF1000F04D1039B13B980
:10920000B8F1000F0DD0019BB8F1090FD4BF03F1E5
:10921000300803F157084FFA88F1384600F0B0F8EB
:109220000444092E8ABF573606F1300171B2384620
:1092300000F0A6F8B9F1070F044404D03A213846EB
:1092400000F09EF8044409F10109B9F1080F05F195
:109250000205A2D1204605B0BDE8F08F06467CE7A6
:109260004FF0FF308FE7CB45EDD1BBF1000FE5D1DB
:109270003A21384600F084F80444DFE700F1100694
:1092800000F11309002416F8011B0A22384600F0E9
:10929000A6F82E218046384600F072F8B1454044C9
:1092A0000444F0D10A22E97C384600F098F80444DE
:1092B000D0E7002B93D1A3E710B5054B036004461C
:1092C000017510220021043003F0C1FE204610BDBC
:1092D00014D50000F8B50F461D460021084B036069
:1092E0000446164601751022043003F0B0FE9DF8C6
:1092F000183027746674A574E3742046F8BD00BF67
:1093000014D5000007B501210648FFF7D5FF00235B
:1093100000931A4619460448FFF7DCFF03B05DF8D6
:1093200004FB00BF5C0D0020740D00202DE9F0410E
:1093300006460D4601EB02080C464445A4EB050722
:1093400007D0336814F8011B1B6830469847002883
:10935000F3D13846BDE8F08170B50368044608468D
:109360000D465E6803F078FF2946024633462046E4
:10937000BDE87040184709B1FFF7EEBF08467047D7
:109380000368C9B21B68184770B58AB00E460AA9AF
:10939000002301F8043D012A98BF0A22B6FBF2F52A
:1093A00002FB1564E3B264B2092CD4BF3033373307
:1093B0005BB22E4601F8013D002DEFD1FFF7DBFF38
:1093C0000AB070BD10B42AB903685DF8044B1B687D
:1093D000C9B21847D2B25DF8044BFFF7D5BFFFF70B
:1093E000F1BFFFFF0F4B10494AF20252A3F8FE23D0
:1093F0000E4A11604FF42542A3F8FE2303F5E4233F
:109400001A886FF304121A80BFF34F8F0849094B73
:10941000CA6802F4E0621343CB60BFF34F8F00BF12
:10942000FDE700BF00E001403581730700E5014022
:1094300000ED00E00400FA0573B50025044680F84D
:1094400030500D2268460E4602F066FFBDF800302F
:109450006363C3F3841203F4F043B3F5006F84F83D
:1094600038602574E5746574A574657522750CD033
:1094700004F11003A361064BE361064B2362064B24
:109480006362064BA362064BE362204602B070BDE6
:109490003967000031680000C1670000CD67000037
:1094A000FD67000000210148FFF7C6BF8C0D0020BA
:1094B000042911D8DFE801F0030C0A030E00002292
:1094C000064B33F830100020FCF722B91022F7E7E2
:1094D0000422F5E78422F3E7704700BFACD3000015
:1094E000044B0A1C18BF012233F830100020FCF78F
:1094F000FDB800BFACD30000EFF31080012383F36D
:109500001088064B196819B9054AD1704021D170ED
:109510001A6801321A6080F31088704754010020E5
:10952000000D044000207047174A002310B59380B7
:1095300072B61649164A17480A601958D1500433B2
:10954000402BFAD1144C002302F140011859C850A5
:109550000433802BFAD1114B9A60BFF34F8F62B660
:10956000FFF7CAFFFAF7F4FDFFF70EFD02F08EFEDB
:109570004FF4E1310A4802F01CFC00F039F8FAF728
:10958000BFFDFAF7C1FDFCE7000D0040C80D00204B
:10959000007F0020004000004040000000ED00E09F
:1095A0006C12002008B5FFF7BFFFFFFF0A46014617
:1095B0000148FCF7ADB800BF2C130020024A136825
:1095C00001331360704700BF040E00200121FDF736
:1095D0002BBF704738B5054C2568054423689D426C
:1095E00002D9FFF7F6FFF9E738BD00BF040E0020EF
:1095F00030B5164B164C196A164B87B001220393EF
:109600000323CDE901230025134B04951B68C1F307
:1096100002608340C1F30221CB4020464FF4FA514F
:10962000B3FBF1F3294600932B46FEF793F82A4645
:1096300008212046FEF7DAF92046FEF741F92046D8
:1096400007B0BDE83040FEF762B900BF00E001405E
:10965000CC0D0020BD950000E40100200148FEF77C
:109660006DB800BFCC0D00200148FEF7A3B900BFC4
:10967000CC0D002070B500F110050446284600F01E
:109680001DFE3F2815D9E178002001F0A3F880B134
:10969000284600F013FE3F28E17807D904F50A7246
:1096A00040230020BDE8704001F0B0B8002001F078
:1096B0009FF8002070BDFFFF10B5044600F04EFF7C
:1096C00008B9002010BD00F051FF0028F9D1044B6B
:1096D0004FF42A7202FB0434207900F00100F1E714
:1096E000080E002008B5044A4FF42A7303FB00203B
:1096F000103000F0BBFD08BD080E002070B54FF41F
:109700002A730A4C58434FF6FE764FF6FF7325181E
:10971000B24288BF1A46103092B2204400F0EFFDEA
:1097200004462846FFF7A6FF204670BD080E00201D
:10973000034A4FF42A7303FB0020103000F0F2BDFF
:10974000080E00202DE9F041054600F007FF10B992
:109750000020BDE8F08100F009FF07460028F7D19E
:109760004FF42A746C43174D04F11C062E44304606
:1097700000F07CFD0028EBD005EB0408384698F893
:10978000021001F027F80028E2D004F51A742544ED
:1097900029464022304600F0B2FD98F802100446F7
:1097A00058B103462A46384601F030F838B9064B1E
:1097B0001B68DB07CCD500BECBE701F019F82046CB
:1097C000C7E700BF080E0020F0ED00E00E4B70B5BB
:1097D0004FF42A7404FB003405464FF6FF734FF62E
:1097E000FE70824288BF1A461C3492B2204600F0B6
:1097F000C0FD0646204600F039FD3F2802D9284624
:10980000FFF7A0FF304670BD080E002008B5044ADF
:109810004FF42A7303FB00201C3000F04FFD08BDFD
:10982000080E002013B5134C4FF42A720021204675
:1098300003F00DFCFF2363714FF4E133A3600822B2
:109840000023A381A273009304F1280101234FF4A4
:10985000807204F1100000F0F2FC012300934FF439
:10986000807204F5947104F11C0000F0E8FC02B071
:1098700010BD00BF080E002010B50A4C00210522C3
:10988000204603F0E4FB04F110001C3400F077FDE7
:10989000204600F074FD20460121BDE8104000F094
:1098A00073BD00BF080E0020F7B54B79022B0746A9
:1098B00003D00024204603B0F0BD8B79022BF8D1F1
:1098C0001F4EB3787BBB8B7833700D7809240D4421
:1098D00003E02B781C44A4B21D446B78242B1BD1CD
:1098E0009442F6D96B78042B12D16B790A2B0FD1E5
:1098F000144B2E7801930133009302231A46A919C1
:10990000384600F033FF70B10E3416FA84F4A4B276
:109910000B48FFF7AFFECDE7052BE3D129463846CC
:1099200000F000FF28B9084B1B68DB07C1D500BE5B
:10993000BFE7AB7873702B781C44A4B21D44D1E709
:10994000080E00200A0E0020F0ED00E038B50B46AE
:109950001146127802F06002202A47D1244A8C88EE
:109960001578A54242D14C78203C032C3ED8DFE844
:1099700004F002141731012B05D107231D4A01F011
:10998000DBFA012038BD032BFBD11B4B002BF8D099
:109990001849002002F000FBF3E7012BF1D1ECE7BE
:1099A000012B02D101F0B0FAEBE7032BE9D14C888F
:1099B0001471E14301F00101104800F0E5FC104B87
:1099C000002BDED0C4F3400204F00101002002F0BD
:1099D000CFFAD6E7012BE5D0032BD2D1094B002BD0
:1099E000CFD049880020AFF30080CAE70020C9E744
:1099F000080E0020100E002099BF0000240E002049
:109A000071BF0000000000002DE9F0471C46374BF5
:109A1000DA788A4280460F461D4607D09B788B42F3
:109A200059D1AB78BB4234D001245BE003F50A7115
:109A300003F11000A2B200F09CFC2D4B2BB92D4B72
:109A4000FBB92A48FFF716FEEBE795F9053001331D
:109A5000F5D005F2272606EB0409A6F2172A4E4593
:109A6000EDD095F9052016F8013F9A42F7D15046FE
:109A700000F00CFC0028F2D195F90510AFF300803E
:109A8000EDE71D4800F002FC0028DAD1AFF30080BA
:109A9000D7E71A4B13B10020AFF300800020FFF787
:109AA00051FE0028C0D1164800F0E0FB0028BBD1D1
:109AB000002CB9D014F03F06B6D1A978404600F08A
:109AC00089FE04460028AFD033463246A978404686
:109AD00000F09CFE06E00B4B1C6814F0010401D062
