:10000000D8290020551F0000D50500009D050000DF
:100010009D0500009D0500009D0500009D05000058
:100020000000000000000000000000009D0500002E
:100030009D050000000000009D0500000506000071
:10004000A51A0000011F000015060000210600008F
:1000500000000000000000000000000000000000A0
:100060000000000000000000000000000000000090
:100070000000000000000000000000000000000080
:100080000000000000000000000000000000000070
:10040000FFFFFFFFDFCEFFFFFCFFFF00FFFFFF004E
:10041000FCFFFF00FFFFFF00FCFFFF00FFFFFF00EE
:10042000FCFF0F20FFFF0F20FCFF7F40FFFF7F40FE
:10043000FCFF0D40FFFF0D40FFFFFFFFFFFFFFFF31
:10044000FFFFFFFFFFFFFFFFFFFFFFFFFFFFFFFFBC
:10045000FFFFFFFFFFFFFFFFFFFFFFFFFFFFFFFFAC
:10046000FFFFFFFFFFFFFFFFFFFFFFFFFFFFFFFF9C
:10047000FFFFFFFFFFFFFFFFFFFFFFFFFFFFFFFF8C
:10048000FFFFFFFFFFFFFFFFFFFFFFFFFFFFFFFF7C
:10049000FFFFFFFFFFFFFFFFFFFFFFFFFFFFFFFF6C
:1004A000FFFFFFFFFFFFFFFFFFFFFFFFFFFFFFFF5C
:1004B000FFFFFFFFFFFFFFFFFFFFFFFFFFFFFFFF4C
:1004C000FFFFFFFFFFFFFFFFFFFFFFFFFFFFFFFF3C
:1004D000FFFFFFFFFFFFFFFFFFFFFFFFFFFFFFFF2C
:1004E000FFFFFFFFFFFFFFFFFFFFFFFFFFFFFFFF1C
:1004F000FFFFFFFFFFFFFFFFFFFFFFFFFFFFFFFF0C
:100500000A4B53F8300011F07F03CAB20BD00849F0
:10051000D20901EB0211194491F878301BB137333D
:1005200000EB430070476030704700BFC82B0000ED
:10053000E0050020014B01221A60704700E100E055
:10054000044B0122C3F88020BFF34F8FBFF36F8F9E
:10055000704700BF00E100E010B50446FFF7D0FF90
:10056000014670B12046FFF7EBFF0B8803F0030351
:1005700043F002030B8002230B80BDE81040FFF71D
:10058000D9BF10BD044AB2F8CC309BB243F080030F
:10059000A2F8CC30704700BF0000094000BE704791
:1005A000064B93F826101A6A054B53F82130C2F314
:1005B0000262D340034A1360704700BF00E001406D
:1005C000AC050020C0050020A0F101000028FBD1EF
:1005D0007047FFFF034AB2F840319BB2A2F83031B6
:1005E000704700BF00600040C030054B53F820202A
:1005F0006FF3104243F8202053F82030704700BFBB
:1006000000600040024A136801331360704700BF66
:10061000D4110020EFF30380103840B2FFF7E4BF9D
:10062000FFF7F8BF0A4492B291424FEA400001D866
:10063000824201DB121A92B2104670474B6902499E
:100640000B610121184700BFCC050020034A034677
:1006500010780BB1FFF76EBFFFF772BFA80500203F
:10066000024B02225A8000221A7170477C07002038
:10067000024B00221A80FFF7F3BF00BF7C07002067
:100680000020FFF7F5BF01207047FFFF8B79012B9A
:1006900070B512D1CB79022B0FD100238D7818467B
:1006A000CC79022C1BD1824209D84FF0E023D3F839
:1006B000F00D10F0010025D000BE002022E08C7863
:1006C000AC42F2D1CE78DCB2A642EED10C78214415
:1006D00020448C79012C80B203F10103E0D04B78E7
:1006E000212BE2D1084B8A781A70B1F80530093015
:1006F000402B80B206D94FF0E023D3F8F03DDB0762
:1007000000D500BE70BD00BF7C07002010B501F110
:10071000080400F00F02D3B2092ACCBF37333033BC
:1007200004F8013DA1424FEA1010F2D110BDFFFFC5
:1007300008B50146FFF758FFBFF35F8F4B09054A25
:1007400001F01F010120603300FA01F142F823108B
:1007500008BD00BF00E100E00123420900F01F00D6
:1007600003FA00F0014B43F82200704700E100E07B
:10077000084B1A68084B9A4209D1084BB3F8B23FAC
:1007800003F08103002B0CBF0020082070470720D6
:10079000704700BF141100204E45504F00F07E40BE
:1007A000084B00221A719A78042A02D103229A7007
:1007B0007047072AFCD11A7812F0040F14BF0622E2
:1007C0000822F4E77C07002008B50378012B06D146
:1007D00003490B881BB1FFF7E3FF00230B8008BD23
:1007E0000E110020EFF31080012383F310880A4AD2
:1007F00053889BB24BB90949B1F8FE339BB243F41D
:10080000254343F00203A1F8FE33538801339BB222
:10081000538080F3108870474C11002000E00140A5
:10082000EFF31081012383F310880C4A53889BB2A5
:100830001BB15388013B9BB2538053889BB24BB989
:10084000074AB2F8FE339BB223F0020343F4254378
:10085000A2F8FE3381F31088704700BF4C110020CE
:1008600000E00140064B07481B68B0FBF3F3064865
:10087000B0FBF3F0800801D0FFF7A6BE704700BFC1
:10088000C005002000CA9A3B400D03002DE9F74F38
:10089000524D534E04464FF00008238898452BD301
:1008A000EFF31080012383F310884E4B196819B9B8
:1008B0004D4AD1704021D1701A6801321A6080F31C
:1008C00010884A4D0020218882B2914267D8EFF308
:1008D0001081012282F310881A6812B11A68013A55
:1008E0001A601A681AB9404BDA708022DA7081F304
:1008F000108803B0BDE8F08F3D4B01934FEAC80963
:1009000000276368019803EB090130F8022B8988FE
:100910000190914227D153F8093095F8BB14012278
:1009200003F0B853BA40B3F1807F5FFA82FA07F15F
:10093000200B1ED111EA0A0F09D1FFF753FF95F8DA
:10094000BB1441EA0A0285F8BB24FFF769FF16F8D9
:100950001B20D30907D116F81B2042F0800206F8AD
:100960001B20FFF77FFF0137032FCAD108F10108D1
:1009700093E711EA0A0F09D0FFF734FF95F8BB148B
:1009800021EA0A0285F8BB24FFF74AFF16F81B206C
:10099000D309E8D016F81B206FF3C712DFE76668AB
:1009A00082B206EBC20156F83260898816F4803FA5
:1009B0004FEA11224FEA0212C9B20AD0571855F86D
:1009C00027C06FF3104C45F827C026F4803C45F84B
:1009D00027C00A44013045F8226074E700E0014076
:1009E0000040044054110020000D04400008044061
:1009F000982B0000030143EA801040F4847040F01B
:100A00000100704710B5041E0EDB04F1604303F5CE
:100A100061430901C9B283F80013FFF789FE20463C
:100A2000BDE81040FFF798BE10BDFFFF30B5184D70
:100A3000AB686D689C6E2D78032D98BF013408B1AA
:100A4000A0421CD35B6BD20754BF03F01F03C3F358
:100A50000443032D07D91B0983F0010348B9A3B947
:100A600002234B6030BD03F00C031A1F5342534165
:100A7000F4E7A04201D3002BF2D10323F1E7032DC9
:100A800098BF00F1FF300860ECE7002CE8D0F4E7F5
:100A9000B011002022F0010330B5034454089842FD
:100AA00007D16FF0010303FB04220AB103780B7036
:100AB00030BD30F8025B0D80F1E7FFFFF0B501F0CB
:100AC0000307032F85B00C4607D02E4E73681B78A2
:100AD000062B01F00C0202D122B905B0F0BD0AB11B
:100AE000032BFAD13268284B9A42F6D1B3685B6E79
:100AF00001338342F1D34FF0FF320023CDE90223CB
:100B000002A922460190FFF791FFB2680399156B85
:100B10000198B1B914F0080F0CBF0223042314F09C
:100B2000020F05BFDB19123302EB830302EB8303D1
:100B3000DDF808C016BFC3F84CC0C3F804C0C3F842
:100B400050C0630642BF136C43F480031364012F4B
:100B500015D025F44035022C45EA01450AD119B1DA
:100B6000012202A9FFF762FF039B25F0407545EAC9
:100B7000036501E0002FF7D1B3681D63ADE7022CD8
:100B8000EDD0F1E7B011002054504700F8B50389CB
:100B9000448985889BB2A4B2A34236BFC4EB450CFE
:100BA000A3EB040C9C441FFA8CFC654506461ED83A
:100BB0000020074603460446944228BF14463D19C8
:100BC000AF422BD1121B92B23AB1934228BF1346C7
:100BD000C218904227D123449CB23189B088224662
:100BE00089B2FFF71FFD3081F8BD5B1B9BB29D42B0
:100BF000FBD9A5420FD93068A34200EB03072DBFF4
:100C0000EC1AE31A0020A3EB0C0335BF9CB2A4B28C
:100C100003469BB2D0E7641BA4B2EAE791F800C098
:100C200007F801CBCCE70D7800F8015BD1E72DE99F
:100C3000F041B0F808C0438984881FFA8CFC9BB24D
:100C40009C4536BFC3EB4405ACEB03056544ADB230
:100C5000AC420746164608D2A4452CBFACEB0403B1
:100C60000CEB04039BB2438125463DB92C46A846B4
:100C7000284612E0ACEB040C1FFA8CFC6445F9D951
:100C80009C4225D9D7F800809C4508EB030022D868
:100C90002D1BE21A1D44ACB295B2B54228BF3546B1
:100CA0002A46FFF7F7FE721B92B242B1944228BF68
:100CB000144622464046FFF7EDFE2544ADB2798941
:100CC000B8882A4689B2FFF7ADFC7881BDE8F0818B
:100CD0001B1B9BB2D4E74FF000084446DDE7FFFF43
:100CE0002DE9F341154CE588074625B9256001201B
:100CF00002B0BDE8F081B0F85E8008F07F0845459D
:100D00002E4628BF46463EB1637A206807F114019B
:100D1000324663B1FFF78BFF464538BF4FF40043BF
:100D2000A5EB060538BF7B84E5800020E0E7019055
:100D3000FFF7B0FE019830442060EDE7E0050020A9
:100D40002DE9F3470C23274D4B43EA180446D78877
:100D50000E4627B9EF50012002B0BDE8F0878BB2F4
:100D600043F480620285A0F86430B0F86CA01FFAEA
:100D70008AFA238D03F00F039E42FAD1638D9B0400
:100D8000FCD55745B84628BFD046B8F1000F0ED065
:100D90004FF00C0909FB06F905EB090355F80900AA
:100DA0005B7A04F1180142469BB1FFF740FFD04542
:100DB0003CBF4FF40043638500232385208D10F052
:100DC0000F00FBD10C2101FB0655A7EB0807EF80B4
:100DD000C2E70190FFF75EFE0198404445F8090024
:100DE000E5E700BFE00500202DE9F0473C4E06EBAB
:100DF000D0138A4693F8294014F00104074611469F
:100E00004FEAD0190BD04FF0E023D3F8F03DD907CB
:100E100003D400242046BDE8F08700BEF9E7314A3C
:100E200092F8008093F8292042F0010283F82920EB
:100E30002D4B53F838504046FFF782FB0DB900BEEA
:100E4000FEE7002F3AD04FF484632B842B8C9A0654
:100E5000FCD5264B00225A729980D980002939D0BE
:100E6000C3F800A0002F31D0B5F86030180403D5C6
:100E7000B5F85430190626D44FF0E023D3F8F03DEE
:100E8000DA0700D500BE4046FFF754FB002CC1D165
:100E900006EB090393F8292064F3000283F8292064
:100EA00093F8292064F3820283F829204FF0E0238D
:100EB000D3F8F03DDB07ACD500BEABE72F842B8C1D
:100EC0009B06FCD4C5E72846FFF70AFF0124A5F8D6
:100ED0006040D8E719600523A5F860300124D2E707
:100EE00008080020A8050020C82B0000E00500200D
:100EF00010F0800F4FF0000211460CBF802010460A
:100F0000FFF772BF10B40346064C006859682246CA
:100F100003C20022C4E902225DF8044B1878FFF7EF
:100F2000E7BF00BFCC0500202DE9F041174D184E5A
:100F3000184F804600242A78E3B29A4210D23D220C
:100F40000021154801F030FD1022FF21134801F067
:100F50002BFDBDE8F04112481422FF2101F024BD11
:100F60000CD93A6812EB43130BD14FF0E023D3F8BE
:100F7000F03DDB0700D500BEBDE8F0819B1A06EB13
:100F80004313DB68404698470134D4E7C805002086
:100F9000A42A0000C4050020080800200D08002035
:100FA0001D08002070B505890389428986889BB297
:100FB00092B2934236BFC2EB46029B1A9B189BB279
:100FC0009E420446ADB217D8C079C00914D170BD95
:100FD0009B1B9BB2B342FBD2E2882068C2F30E0295
:100FE00002FB030001F0D2FCA08801222946FFF792
:100FF00019FB20810120EAE72B46EBE713B5124BE2
:101000009889D98993F90040421A92B2402A28BFA0
:101010004022002C0EDA884212D099680B480192C7
:1010200001F0B4FC0949019A802002B0BDE81040EB
:10103000FFF7DABE88424FF0000003D10021F4E749
:101040008020FBE70149F0E7CC050020C80700201D
:1010500070B50446164D00680B466168AB602E46BD
:1010600003C60021E981E1888A4228BF0A46AA8195
:10107000E18881B152B14BB94FF0E022D2F8F02DA6
:10108000D20701D4002070BD00BEFBE7FFF7B6FF1A
:1010900028B10120F7E72078FFF72AFFF8E74FF0A3
:1010A000E023D3F8F03DDB07ECD500BEEBE700BF53
:1010B000CC05002007B58DF800208DF801301A0A04
:1010C0001B0C8DF802208DF803308DF804100023DE
:1010D000062269468DF80530FFF7BAFF03B05DF8C8
:1010E00004FBFFFF2DE9F04F87B0B94B1D680020CE
:1010F0002B689847A989EB89288989B29BB29942C4
:1011000036BFC3EB4002CA1A521894B29CB1A04237
:1011100005D281422CBF091A09188BB2EB81984283
:1011200026D96A896968C2F30E0202FB031103A87B
:1011300001F02CFC0124E9892889224689B2FFF7B5
:1011400071FA2B68E88101209847002C00F0B883E1
:101150009DF80D30013B072B00F25E83DFE813F0B2
:101160000B001900C803BD03BD0323003B03C003EC
:101170001B1A9BB2D3E79DF80C00FFF7D5FE142293
:101180009448002101F010FC934B9DF810209A70B8
:10119000ABE79DF80C00FFF7C7FE142200218D4835
:1011A00001F002FCA1E78C4CE378013BDBB2E37079
:1011B000E27802F0FF03002A97D12278DFF8148248
:1011C0009DF80C60C8F8103042F00102227094F8CB
:1011D000292063F3000284F8292094F8292063F37E
:1011E000820284F8292094F82A2063F3000284F80C
:1011F0002A2094F82A2063F3820284F82A209DF89A
:10120000102002F06003602B08D14FF0E023D3F8E8
:10121000F03DD90740F1748200BE71E2402B0ED13F
:101220006E4B002B00F06C8204AA01213046C8F8F6
:101230001030AFF3008000287FF457AF60E202F077
:101240001F02012A00F0E181022A00F00882002A30
:10125000DBD1202B1CD19DF814300F2B00F25082D3
:101260005F4A234411785B798B420AD25D4A116848
:1012700011EB431100F0448204AA3046FFF7DEF977
:10128000D9E740F03D825B1A574901EB4311F3E780
:10129000002BBAD19DF81130092BB6D801A252F813
:1012A00023F000BFEB150000D91500000B12000061
:1012B000C51500000B120000CD120000B71400008D
:1012C0000B120000E7120000F112000006AB13E958
:1012D00003000023C8E90233237843F00203C8E97E
:1012E0000001237001E763788DF80A30012286E15E
:1012F0009DF8127063789F4200F0D8806378EBB15C
:101300003A4BDFF8F08053F83610002588F89850F3
:101310000B8E65F34D330B863046FFF711F901F163
:10132000600B43464FF00A0EBEF1010E1ED130464F
:10133000FFF700F9A578FFF7F7FDA570002F00F083
:10134000B58023782A49DFF898A023F03003237072
:101350004FF001094B78042B4ED04FF0E023D3F827
:10136000F03DDC077FF551AF00BE4EE793F87420E7
:1013700052B302F07F09D209100108EB02124A446D
:10138000B1F836C092F878204FF0010A1FFA8CFCB1
:101390000AFA02FA2CEA0A0CA1F836C0B2B102F13C
:1013A000370C01EB4C0CACF800501FFA82FCA1F892
:1013B00064C040444FF00C0C0CFB02828144A1F845
:1013C0006850157289F878500C3BADE7DC46EAE7C7
:1013D00048080020CC05002008080020000000007C
:1013E000C8050020C4050020A42A0000C82B000066
:1013F000F52A0000E0050020AD4BDFF8ECB25A1AE8
:1014000092B24FF000089AF800305FFA88F5AB42CC
:10141000A3D311D9A74B1B6813EB45139DD01B69B0
:101420003046CDE9001298470828DDE900123AD984
:10143000824238D300220FE0EB1A0BEB4313EEE7A6
:1014400091F802C0634454FA83F3013293F805C063
:10145000BCF1FF0F81D15D71D3B29945F0D808443A
:10146000884212D89AF80030AB42FFF476AF904B26
:1014700098421BD243780B2B03BF037890F803905C
:10148000C0184FF00109014664E74B78052B07D1DE
:101490008A7802F07F0304EB430303EBD2135D75FC
:1014A0000B781944DCE708F10108ACE7677004A881
:1014B000FFF728FD19E6BDF81200030A5A1EC0B254
:1014C0000E2A00F21D81DFE812F00F00210030002B
:1014D0001B011B01710021001B011B011B011B01D2
:1014E0001B011B011B0115007349122204A8FFF701
:1014F000AFFDA0E6714B002B00F00281AFF300803E
:10150000014600283FF481AE4A88EFE7022B01D163
:101510006B49F9E76B4B002B00F0F280AFF30080D2
:1015200000283FF472AE0146EEE770B9664967489D
:10153000022201F02BFA01204000821C644942F48F
:1015400040730B8002F0FE02D0E7052800F2D8803D
:10155000604B614C53F820502378BBB95F4BD3F8F4
:101560009C3103F1140658692146FFF7CFF87068E3
:1015700004F10801FFF7CAF8B06804F11001FFF7A1
:10158000C5F8F06804F11801FFF7C0F8284601F02B
:1015900013FA4F49C0B20023DAB2824203F10103C9
:1015A000CAD2541CAA5C21F81420F5E74C4B002B3E
:1015B00000F0A680AFF300800146002800F0A08074
:1015C000027893E7BDF81230012B40F09980237820
:1015D00043F0080323706AE7BDF81230012B40F096
:1015E0008F8023786FF3C303F4E72378C3F34012AB
:1015F0009B0803F002031343ADF80A3002220DF1F9
:101600000A0104A8FFF724FD6FE59DF814300F2BA5
:1016100076D8344A234412785B7993421CD2254A07
:10162000116811EB43116BD004AA3046FFF706F89E
:1016300000287FF45AAD9DF8103013F060035FD19D
:101640009DF81120A2F10A01012959D80A2AC8F8E7
:1016500010307FF42CAF47E652D12349E4E79DF8E0
:10166000149009F07F02092A3FF6CFAD550004EB34
:1016700042021C4902EBD9120978527D8A424FEA94
:10168000D91A33D20B490F6807EB4217B3BB9DF849
:10169000113003F0FD02012A3DD0002B7FF4B5ADDF
:1016A0002C44A2449AF82930C3F34003A4E700BFB6
:1016B000102B0000C4050020102B000000000000CB
:1016C000EC2A000000000000A02A00007E06002096
:1016D0007C060020D02B00005811002000B07F4075
:1016E00000000000C8050020A42A000040F004818A
:1016F000844F002BCBD004AA3946BEE5002FFAD187
:101700009DF80C000021FEF727FF9DF80C008021BA
:10171000FEF722FFE9E4BDF81220002A39D17A4A07
:10172000012B92F800B045D1494658460193FEF787
:10173000E7FE0146F8B1754A584652F83B20009240
:10174000FEF7FEFE4FF48070DDE900230880BAF159
:10175000000F01D00B800BE06D48484490F87800F2
:10176000A2F86400B2F86820C2F38132012AF1D1F4
:101770005846FEF7DFFE2544AA449AF829306FF355
:1017800041038AF829309AF829306FF300038AF868
:101790002930002F3FF4A9AC04AA39463046FEF7A1
:1017A0004DFF0023C8F8103094F82A30D8073FF5D1
:1017B0009CAC7CE62544AA4449465846FEF7CCFE3C
:1017C0009AF8293043F002038AF829309AF8293030
:1017D00043F00103DBE79DF810104E4B01F07F044E
:1017E00003EB440303EBD113CF0993F829006FF304
:1017F000000083F8290093F829006FF3820083F832
:101800002900002C4BD1444C9DF80C602378059D99
:10181000B7EBD31F12D045B14FF0E023D3F8F03D22
:10182000DB077FF562AC00BE5FE42369002B3FF469
:101830005CAC224603213046984756E494F90030C8
:10184000002B07DBA06800283FF44FAC33492A4641
:1018500001F09CF8A268E3892A442B44A260E28844
:101860009BB29A42E38101D03F2D15D8236933B949
:101870002078FFF73DFB00287FF437ACCCE702214E
:10188000254A3046984701460028F1D13046FEF7F8
:1018900063FE802130463BE7FFF7B0FBEBE75A7D64
:1018A0001F4B1B789A420ED21E4B1B6813EB421340
:1018B0000BD14FF0E023D3F8F03DDA0700D500BE9E
:1018C00007B0BDE8F08FF4D10E4B9C699DF8112054
:1018D000059B9DF80C00A04707E40E4B1B7804E421
:1018E000049B002B3FF401AC05989847FFF7FDBB24
:1018F000084B1B79FFF7F9BB002B7FF401AF1F46A4
:10190000C5E600BFA42A0000A8050020C82B0000DF
:10191000E005002008080020CC050020C8070020B2
:10192000C8050020C405002008B50D4C0D4E2568E3
:10193000327823685B1B632B0CD9BFF34F8F0A49A6
:101940000A4BCA6802F4E0621343CB60BFF34F8FC7
:1019500000BFFDE7FF2AECD0FFF7C4FBE8E700BFBC
:10196000D4110020A805002000ED00E00400FA05D5
:101970002DE9FF414378023B0446042B13D8DFE8EE
:1019800003F0037A161E8000414B1A786FF30002B1
:101990001A701A7800216FF341021A7059701A7880
:1019A00061F382021A703B4B2146186851E0384BB4
:1019B0001A78D60758D51A7842F00402F2E7344A6A
:1019C0001378DD0750D513786FF382031370EAE7BD
:1019D0004DD9D8F8002012EB431304D0DB6913B1C2
:1019E00061682078984701353278EBB29A42EFD29D
:1019F000274D2B7858071BD52B786FF382032B705C
:101A00000023CDE90133039323788DF804300523B7
:101A10008DF805301F4B186801A90430FFF7C2FA92
:101A200030B94FF0E023D3F8F03DD90700D500BE20
:101A30002B79DA0718D500230193039323788DF8C7
:101A4000043003238DF8053063680293114B186846
:101A500001A90430FFF7A6FA30B94FF0E023D3F81C
:101A6000F03DDB0700D500BE04B0BDE8F0819B1A55
:101A700007EB4313B2E7084E084FDFF82480002538
:101A8000B2E7034AD3780133DBB2D3708BE700BFF0
:101A90000808002048080020C8050020A42A0000EB
:101AA000C40500202DE9F04F89B0EFF30380103812
:101AB00040B2FEF799FDB04BB3F84010CA4362F450
:101AC00078428CB292B20904A3F840200CD5B3F846
:101AD000402012F0800FC2F3C0111A8814BF42F0E8
:101AE000100261F304121A80620412D50023CDE9BA
:101AF0000533079305A805238DF81530FFF738FF48
:101B00009E4B93F8981021B99B4B1A8E61F34D327E
:101B10001A86A30419D5984D2B8E9F0415D5B5F8B8
:101B20004C300022C3F30A030592079205A8032252
:101B30008DF815200693FFF71BFF904B93F8982024
:101B40001AB92B8E62F34D332B86E60407D504F0C9
:101B50007003202B00F0DC805ED8102B7AD020059B
:101B60002DD5E10740F1F380834BB3F840201207F5
:101B700025D54FF480425A84B3F85420ADF80C2098
:101B8000B3F85620ADF80E20B3F85820ADF8102069
:101B9000B3F85A20ADF812204FF6F772A3F84020A0
:101BA0000023CDE9053307930822062303A906A8DD
:101BB0008DF8153000F0EAFE05A8FFF7D9FE67059D
:101BC00015D56D48B0F84A300022DE07A0F84A204B
:101BD0000DD5FFF785F850B1684B4FF4E0659B8851
:101BE0000793802205A8CDE90552FFF7C1FEE00565
:101BF0000FD5614B614CDA8EB3F84660DFF88CA1EB
:101C0000B6B21640F24392B2A3F84620002E40F03E
:101C1000BF8009B0BDE8F08F602B04D018D804F065
:101C20006003402B9BD10023CDE90533079305A822
:101C300004238DF81530FFF79BFE504B93F8983036
:101C4000002B8CD14C4A138E43F40053138686E745
:101C5000702BE7E7484B01225A87DA864FF480421F
:101C60005A8400221A851A8D12F00F02FBD19A8530
:101C70009A8D12F00F02FBD1414D42493E4801239B
:101C800094464FF400774FF480761FFA83FEA0F855
:101C900064E0A0F868C021F8137021F8132025F83B
:101CA00023600133062BF0D10025334E28464FF434
:101CB00000729FB2A6F86470A6F8680021F813209D
:101CC00021F8135001330A2BF3D12C489C22002118
:101CD00000F06AFE338903F00703013B9BB2022B3D
:101CE0000DD8294A0795D35C0122CDE905558DF819
:101CF00015208DF8183005A8FFF73AFE2FE74FF0B2
:101D0000E023D3F8F03DDD077FF529AF00BE26E7DD
:101D1000194BB3F8503013F07F023FF420AF00238B
:101D20000521CDE905338DF80C308DF80D10ADF897
:101D30000E20ADF81030ADF81230079308220623BC
:101D400003A906A88DF8153000F020FED3E714F0A3
:101D500007037FF434AF084A128C079312F0200F68
:101D600014BF802200220721CDE905338DF815101C
:101D70008DF8182020E700BF00000940E005002092
:101D80008C0009406E0009409D2A000014000940A3
:101D900096FAA6F5B5FA85F50C2202FB0542137AF0
:101DA000DB091DD054482946FEF7CAFF90B10C2329
:101DB00003FB054305A89A88197ADB88D31A002209
:101DC000CDE9052207228DF815208DF8181007930C
:101DD000FFF7CEFD012303FA05F526EA050615E710
:101DE000454B002D52D0B2F806B0AAB21A85A3F81E
:101DF0006420B3F86C901FFA89F91A8D02F00F0273
:101E00009542FAD15A8D9104FCD55F8DC7F30B072B
:101E10004F4528BF4F460C236B43BB45D84628BFD0
:101E2000B846E058E218B8F1000F07D0537AF3B182
:101E3000324901904246FEF7A9FE01982E4BC1455A
:101E400084BF4FF480425A8500221A851A8D1207EA
:101E5000FCD10C2303FB0542ABEB0801C145D1804B
:101E600001D8BB45B6D86B430022E2509EE7224919
:101E700000EB08020346934203D10C226A43A350AD
:101E8000DCE791F818C003F801CBF4E7B3F85E90F3
:101E90005F8CB4F806B0C7F30B0709F07F094F4514
:101EA00028BF4F46BB45D84628BFB846B8F1000FFB
:101EB00006D0627A2068A2B142465146FEF766FE1D
:101EC000C14582BF0C4B4FF480425A84ABEB0803F0
:101ED000C145E38002D8BB453FF67CAF00232360B9
:101EE00065E700EB0802904201D12060E8E7197D28
:101EF00000F8011BF7E700BF000009401800094087
:101F0000FFF7D0BD13B5114B4AF68022A3F8B22FCC
:101F10000F4B81680446062000F066FD93F8A03060
:101F20009B070CBF1020502000F056FD63681A7804
:101F300052B193F911000190FEF7FAFB019802B03B
:101F4000BDE81040FEF708BC02B010BD00F07E40B6
:101F500000E001408FB5BC4BBC48BD4F4FF4700250
:101F6000C3F888209F604AF20253A0F8FE33012391
:101F700080F81F3490F8B134DD06FBD54FF42543CB
:101F8000A0F8FE334AF20353A0F8FE33B14BB24936
:101F9000B24C0022A3F80021B14BC3E900414FF439
:101FA0000041C3E902121A61FEF7FAFA012380F830
:101FB000803490F8A030A3B190F83620A34B1AB922
:101FC00093F83C20D207FBD593F8A020D606C2F3A5
:101FD0000011F9D49D4A83F8A01092F8A030DD06D4
:101FE000FBD49A48002380F8363090F83C30DC0768
:101FF000FBD501249B4B80F831400362002380F81D
:102000002630FEF7CDFA4FF4254380F8D040A0F8F3
:10201000FE33904BA3F80441B3F80441A4B2002C62
:10202000FAD10125A3F800518DF807409DF807303B
:10203000FEF7D8FBEFF3108285F310888A4ED6F8AE
:10204000043123F00043C6F80431D6F8043182F39A
:102050001088864B1A68C2F300028DF807201A68B0
:10206000C2F300028DF807201B68C3F300038DF84C
:102070000730EFF3108285F31088D6F8043143F06F
:102080000043C6F80431D6F8043182F31088FEF715
:10209000C7FB774B77489C804FF425421A803A68FB
:1020A000754FA2F500619960DA60744A4FF480516F
:1020B000A2F82011724A9D80121A214600F074FC89
:1020C0007048714A7149724D121A00F05FFCED1BA5
:1020D000AD10A54200F3AA81FEF762FA6D4B002411
:1020E00083F82840FEF77EFB584B83F8BB44FEF78D
:1020F00097FB694A6149234603F1C000013312F896
:10210000014B41F82040202BF6D162B6634D644C60
:102110002B68A34203D063482C60FEF7B7FB624FE5
:102120004FF47A723B68B3FBF2F3013BB3F1807F6B
:102130000AD24FF0E022F0215361434B83F8231081
:1021400000239361072313612B68A34202BF574BFF
:102150004FF000629A623D4B554AD3F80015914208
:1021600040F069814AF20252A3F8FE230022C3F82C
:1021700000254FF42542A3F8FE234E4B1A68A242D5
:1021800003D04D481C60FEF781FB4C4CDFF83881D2
:102190002368434500F0A8800823E360484B494A80
:1021A0006360002501232374A2606561C4E90655BC
:1021B000EFF3108283F31088D6F8083123F0400340
:1021C000C6F80831D6F8083182F31088A3684FF4B6
:1021D00025421A60A3684FF08072DD62DD639D6462
:1021E000DA624FF000421A615A619A6149F695022B
:1021F0005D6202A99D6244F64B40DD611D629A66F4
:102200005A664FF0FF332A46CDE90235FEF70EFC41
:10221000A268029B53659365039B2846190641EA11
:102220000341FEF7E7FB4FF4AA039563C2F8885019
:102230001364E368D36041F0030341F0010150638C
:102240001363284642E000BF00ED00E000E00140DB
:102250000000000000C0014000127A00006CDC02A7
:10226000AC05002000010110006F0440000804408C
:10227000000D0040C0050020AC05002000600040BB
:10228000D811002000000020AC050020E82B000041
:10229000AC05002000400440482B0000A4110020A1
:1022A00054524F502C2B0000C00500200000044069
:1022B000358173079C110020A02B0000B011002075
:1022C000A82B000000830740545047001163FF21F2
:1022D000FEF798FB29462846FEF794FB2946284638
:1022E000FEF790FBC4F800806168087844F61F632D
:1022F00044F62062032898BF1A46A3689A660978B4
:1023000019B942F20F7159659965D96ACD0705D49B
:102310005A664FF4AA021A64E268DA60002108469D
:10232000FEF7CCFB2368A94D434508BFD4E9023230
:10233000A74C08BF5A602368AB4273D0A54B6360BB
:10234000A5483A68002384F83430016AC1F3026377
:1023500002FA03F3C1F30271CB40A049E3608B4260
:1023600009D89F498B4206D09E498B4203D09E4993
:102370008B4240F0BF80006A994FC0F3026002FABE
:1023800000F1C14003F5742303F23F2301F57421EA
:10239000B3FBF7F3E36040F28353062001F23F21E1
:1023A000B1FBF7F14B43B3FBF0F3236140F276331B
:1023B0004B43B3FBF0F3636158234B43B3FBF0F3A0
:1023C000A3618A4B8A4FA1604B43B3FBF0F3E361F7
:1023D000884B4B43B3FBF0F32362874B4B43B3FB78
:1023E000F0F36362854B002283F8C02F97F890309A
:1023F000012B04D0012387F8903000F0F5FA7448DF
:10240000FFF780FDE368D7F8D8217148013B03F05E
:102410001F0363F30502C7F8D82100F0E9FA00288A
:1024200065D125606A4800F0D3FA63E057F8043BB1
:10243000984701344DE693F81014C90709D44AF2BD
:102440000251A3F8FE13C3F800254FF42542A3F868
:10245000FE236B4A1368B3F5FA7FFBD35E4B4AF257
:10246000025C00214FF425454FF48042A3F8FEC3DF
:10247000C3F80015A3F8FE53106800F07F40B0F1D8
:10248000005F7FF47AAEA3F8FEC3EFF3108E4FF037
:10249000010C8CF31088D6F8000140F40060C6F8F7
:1024A0000001D6F800018EF31088EFF3108E8CF344
:1024B0001088D6F8000140F48050C6F80001D6F824
:1024C00000018EF31088A3F8FE534E4B998072B62C
:1024D000BFF34F8FBFF36F8F4FF0E0231961C3F845
:1024E000082D136883F308885368984745E62368E6
:1024F000AB4297D0444D2B78FF2B40F0A6803D2275
:102500004248002100F050FA414B0022DA819A81C2
:10251000404A1360404B23B14048AFF30080404B2A
:1025200018603E4FDFF80481DFF8F49000243A7819
:10253000E3B29A427CD200222A70D6F8003139499F
:1025400023F40063C6F80031374B81F898201A88CD
:1025500042F480621A801A885005FCD51A886FF3FD
:1025600045121A801A886FF386121A801A8842F070
:1025700001021A800522C3F8F020D3F800246FF37B
:102580000412C3F80024B3F85E20402060F3060272
:10259000A3F85E200022A3F8402091F898309342DF
:1025A000214B14BF4FF47D424FF45D421A86012245
:1025B0005A87DA86B3F84020120642BF1A8842F0E2
:1025C00010021A800020FDF7B5FF3EE04E45504F47
:1025D00014110020342B000000E00140FF083D00F2
:1025E00040420F0080841E00C0C62D00B86A05005E
:1025F00000C07E40D066050068ED220000F07E40FD
:10260000D4110020000D0040A8050020080800207B
:10261000980500204808002000000000C8050020A0
:10262000C4050020E005002000000940A42A0000A5
:1026300030D9D9F8002012EB43132ED14FF0E0230C
:10264000D3F8F03DDC0700D500BEFDF79BFF1F4F20
:102650001F4EDFF884802B78FF2B01D0FEF742FD60
:102660003A683368D21A632AF5D9D8F8004064333F
:10267000002120463360FEF721FA164B1A78BAB1D2
:10268000B4F5FA6F0FD200221A704FF4FA63C8F84B
:102690000030E0E79B1A08EB43135B680134002B22
:1026A000CCD0984743E7A4F5FA64C8F80040D2E7D5
:1026B00004F5FA6444F61F629442C8F80040CAD98F
:1026C00001221A7044F62063E1E700BFD411002014
:1026D000D011002010110020AC11002010B5104BBB
:1026E0001988FEF745F8C8B90E4A02EA8112A2F528
:1026F0006E33013B6FF47E318B420FD30A490B4C92
:10270000B1F5802F84F8340008D920464FF40063D7
:10271000BDE8104002F5804200F062B910BD00BF74
:102720000C09002000F8FFFF0E0900201411002002
:1027300070B50C46117801F01F03012B154640F0CF
:10274000118111F060011CD153780A2B10D00B2B92
:1027500040F00881012C01D0012424E0824B5288F2
:102760005A70FDF77DFF2846BDE87040FEF7CABBF2
:10277000012CF1D17D4922462846BDE87040FEF784
:1027800067BC202940F0EE805378062B00F2EA80E7
:10279000DFE803F004321C520F140F00012C04D1A7
:1027A0002846FEF7AFFB204670BD032CD4D1FFF7BF
:1027B000BBF8012CD0D1FDF753FFF1E7012CCBD1B1
:1027C0006B4922462846FEF743FCECE7012CC3D1B7
:1027D000654E347814F00204E5D0EC88402C00F209
:1027E000C18069882246614306F10C0000F0CEF8F2
:1027F000224606F10C01BFE7012CADD15A4B1C78E3
:1028000014F00104CFD09A78022A02D0052A40F0B1
:10281000A980EA88402A00F2A58001221A716A88FC
:10282000DA80EA881A81EA881AB10321997051493D
:10283000A2E706229A7096E74B4A9178032905D0C1
:10284000062953D0012C87D1002309E0012C0BD19C
:1028500013793BB15378002B0CBF00236423042170
:10286000D2784EE00521FBE7032C7FF475AF147995
:10287000002C38D00423D18893703F4B15891980E0
:1028800001F58071890111F4F86F14D172B6FDF76A
:102890006FFF78B9394EB1F5802F86F8340009D230
:1028A00021F4FF614FF40063012221F0070130465B
:1028B00000F08AF862B6324E324833882D492A46F3
:1028C000184400F063F833881D44ADB2B5F5006FCD
:1028D000358005D172B6FFF701FF62B60023338061
:1028E000FDF75EFF5FE70523937035E7012C0DD1FF
:1028F0001379D278002B08BF02214FF0000318BFD4
:1029000007212846BDE87040FEF7D4BB032C7FF4B6
:1029100023AF147924B30723937072B6FFF7DEFE5A
:1029200062B6FDF73DFFFDF723FF00287FF414AFEB
:10293000124B18605B6893F9113013F1210F3FF4CB
:102940000BAF5A09012103F01F0301FA03F32032F0
:102950000D4941F82230BFF34F8FBFF36F8F22E74D
:102960000223C1E700241EE77C0700207D0700202A
:102970007E070020880700200C0900201411002089
:102980000E1100200E09002000E100E00A449142EF
:1029900000F1FF3300D1704710B511F8014B03F877
:1029A000014F9142F9D110BD02440346934200D138
:1029B000704703F8011BF9E7034613F8012B002ABF
:1029C000FBD1181A013870475FF800F0110300209E
:1029D0005FF800F0390100205FF800F08F00002060
:1029E0005FF800F0390400205FF800F07D0000205F
:1029F0005FF800F0B900002000000504342E352EE9
:102A000030004275696C7420776974682052656E75
:102A10006573617320416476616E63656420466C02
:102A2000657869626C6520536F66747761726520A2
:102A30005061636B6167652076657273696F6E20A4
:102A4000342E352E30005365656564005849414F7A
:102A5000205241344D31204446550040436F646557
:102A6000466C617368202F30783030303030303031
:102A7000302F382A324B612C3132302A324B6700EA
:102A80004044617461466C617368202F307830383F
:102A90003030303030302F382A314B67000100029F
:102AA0000904FFFF00000000810600008706000007
:102AB000710600008D0600003127000000000000B4
:102AC00000000000040000000B01000000000000F6
:102AD0000A010000000001130704000000000113B8
:102AE0000E090000000001130F0900000902240074
:102AF00001010080320904000000FE010204090403
:102B0000000100FE010205092107E8034000010160
:102B100012010002000000408628498000010102E5
:102B20000301FFFF000001030B010000050000008E
:102B3000C42A000000000000C907000000000000D7
:102B400000000000020702083334313200000000A8
:102B50000000000000000000000000000000000075
:102B60000000000000000000010000000000000064
:102B70000000000000000000000000000000000055
:102B80000000000000000000000000000000000045
:102B90000000000000000000020403040404FFFF22
:102BA00001000000242B00000200000096980000A5
:102BB000020000004B4C000003FF0000000000007A
:102BC00000000000682B0000000009400000000029
:102BD000A02A0000462A00004C2A000058110020BC
:082BE0005B2A0000802A0000BE
:102BE80010B5431E19440B4B93F804416FF30004CE
:102BF80083F80441040C80B2A3F81041D2B2A3F8C0
:102C08000801080C89B2C3F82001A3F8181183F849
:102C1800142110BD00C07E4082B00F4B0190D3F844
:102C28002C2151060FD5002283F814210190D3F8E6
:102C38002C21C2F38010520608D5019A2AB1019AB4
:102C4800013A0192F3E7019A12B9142002B07047D1
:102C5800019A013A0192E2E700C07E40414303290C
:102C680004D98908A1F101010029FBD17047094B5A
:102C7800A522C3F88021C243D2B283F8000183F8A9
:102C8800002183F8000193F80031834200D100BF8E
:102C9800704700BF00C07E4073B51D4EB6F8B24FF6
:102CA800A4B24FF49643012C0546019309D1922012
:102CB800FFF7DDFF0320A968FFF7D0FF1220FFF719
:102CC800D6FF0820FFF7D3FFA96806204FF42A4350
:102CD800FFF7C4FFA6F8B23FB6F8B20F80B270B9DA
:102CE800012C0AD10B4BA3F80441B3F8040180B2BC
:102CF8000028FAD10122A3F8002102B070BD019B7F
:102D08001BB1019B013B0193E6E71420F5E700BFE7
:102D180000F07E4000C0014010B5002380F8343038
:102D28000C4BB3F8B23F9BB204460BB900F020FA43
:102D3800094BD3F8242142F00102C3F82421D3F827
:102D480024216FF30002C3F824212046BDE8104077
:102D5800A2E700BF00F07E4000C07E40F8B50546FF
:102D6800084616461F46FFF757FF1428044604D1A5
:102D78002846FFF7D1FF2046F8BD054BD3F8F041B0
:102D88003440F8D02846FFF7C7FF3C46F3E700BFBA
:102D980000C07E4010B50023934200D110BDCC5C2A
:102DA800C4540133F8E738B51D4B0022A3F80021BD
:102DB80043681A7804467AB193F9113001215A0907
:102DC80003F01F0301FA03F32032164941F82230B9
:102DD800BFF34F8FBFF36F8F134B4AF60122A3F84F
:102DE800B22F1220FFF743FF104BA1680320FFF713
:102DF80035FF93F8A0300340002B0BBF8221C2217E
:102E08009220D2200CBF06250425FFF730FF084684
:102E1800FFF72DFFA1682846BDE838401EE700BF30
:102E280000C0014000E100E000F07E4000E0014009
:102E380082B00F4B0190D3F82C2111060FD5002238
:102E4800C3F8DC210190D3F82C21C2F3C01012067C
:102E580008D5019A2AB1019A013A0192F3E7019A39
:102E680012B9142002B07047019A013A0192E2E7C0
:102E780000C07E4038B50546406AFFF7D9FF1428E0
:102E8800044604D12846FFF747FF204638BD054BC6
:102E9800D3F8F04114F01204F7D02846FFF73CFFAE
:102EA8001824F2E700C07E40F8B5054614460F46E0
:102EB8001E46FFF778FF214683223846FFF790FE2B
:102EC8000334A969A4084FF4FC731022614328460F
:102ED800FFF744FF48B9054BD3F82831C3F3C003C3
:102EE80033702846BDE8F840D6E6F8BD00C07E40FD
:102EF800F8B5044615460E461F46FFF754FF0D4B1E
:102F080093F804216FF3000283F8042107FB05F10D
:102F180084223046FFF764FEE169192311226943D0
:102F28002046FFF71BFF18B92046BDE8F840B3E676
:102F3800F8BD00BF00C07E402DE9F84F89468046A5
:102F48009246FFF730FF214C4D4683274FF6FF7B13
:102F580094F8043143F0010384F80431BAF1000F06
:102F68001DD1C4F830B1C4F838B1C4F8DC7140469A
:102F7800FFF780FF94F804316FF30003013784F8FA
:102F88000431064618B9872F05F10405E0D14046FB
:102F9800FFF782FE002E18BF3046BDE8F88F6A782A
:102FA8002B7843EA0223C4F83031BB00B3F5067F1F
:102FB8000DBFB9F80E30EA78AB784AEA030318BFB8
:102FC80043EA0223C4F83831CFE700BF00C07E408F
:102FD80013B5104C0B0C89B2A4F810310822A4F8D0
:102FE800081101466846FFF7D5FEBDF80030C4F861
:102FF8003031BDF80230C4F83831BDF80430C4F8B7
:103008004031BDF80630C4F84431812384F81431C6
:1030180002B010BD00C07E40F8B5044617460E4603
:103028001D46FFF7C0FEC4E90A67154AED08256387
:1030380092F804316FF3000382F804310025236B02
:10304800BBB10DB12846F8BDD4E90A01FFF7C0FFAE
:10305800A36A21690833A362E36A0833E362236B36
:10306800013B2363122218232046FFF777FE05460B
:10307800E5E7002DE6D12046FFF70EFEE2E700BFA8
:1030880000C07E400C4B5AB9C0F38F20C1F38F218A
:10309800C3F830018222C3F83811C3F8DC21704725
:1030A80040F47E404FF6FF7240F0FF00C3F838212D
:1030B800C3F830018122F0E700C07E40F8B516461B
:1030C80007460D46164CFFF76EFE6EB1D4F8D831A0
:1030D80065F38713C4F8D83100253846FFF7DCFDBF
:1030E800002D18BF2846F8BD94F8043115F0010FDB
:1030F80043F0010384F804310CBF4FF480700020C2
:1031080001223146FFF7BEFF3846FFF7B3FE94F8B9
:10311800043166F30003054684F80431DDE700BF97
:1031280000C07E4073B5114E019205460C46FFF76C
:103138003AFE96F8043143F0010386F80431019908
:1031480000222046FFF79EFF2846FFF793FE96F8D9
:1031580004316FF30003044686F804312846FFF76C
:103168009BFD002C18BF204602B070BD00C07E40F9
:103178005FF800F0051F00004D0600004C08002015
:0C31880010000C0000000000FF00000020
:020000040101F8
:10001800FFFFFFFFFFFFFFFFFFFFFFFFFFFFFFFFE8
:0C002800FFFFFFFFFFFFFFFFFFFFFFFFD8
:0400000300001F5585
:00000001FF
